{
  "_format": "hh-sol-artifact-1",
  "contractName": "XDoodlesNFTV3",
  "sourceName": "contracts/XDoodlesNFTV3.sol",
  "abi": [
    {
      "inputs": [],
      "stateMutability": "nonpayable",
      "type": "constructor"
    },
    {
      "inputs": [],
      "name": "ApprovalCallerNotOwnerNorApproved",
      "type": "error"
    },
    {
      "inputs": [],
      "name": "ApprovalQueryForNonexistentToken",
      "type": "error"
    },
    {
      "inputs": [],
      "name": "ApprovalToCurrentOwner",
      "type": "error"
    },
    {
      "inputs": [],
      "name": "ApproveToCaller",
      "type": "error"
    },
    {
      "inputs": [],
      "name": "BalanceQueryForZeroAddress",
      "type": "error"
    },
    {
      "inputs": [],
      "name": "MintToZeroAddress",
      "type": "error"
    },
    {
      "inputs": [],
      "name": "MintZeroQuantity",
      "type": "error"
    },
    {
      "inputs": [],
      "name": "OwnerIndexOutOfBounds",
      "type": "error"
    },
    {
      "inputs": [],
      "name": "OwnerQueryForNonexistentToken",
      "type": "error"
    },
    {
      "inputs": [],
      "name": "TokenIndexOutOfBounds",
      "type": "error"
    },
    {
      "inputs": [],
      "name": "TransferCallerNotOwnerNorApproved",
      "type": "error"
    },
    {
      "inputs": [],
      "name": "TransferFromIncorrectOwner",
      "type": "error"
    },
    {
      "inputs": [],
      "name": "TransferToNonERC721ReceiverImplementer",
      "type": "error"
    },
    {
      "inputs": [],
      "name": "TransferToZeroAddress",
      "type": "error"
    },
    {
      "inputs": [],
      "name": "URIQueryForNonexistentToken",
      "type": "error"
    },
    {
      "anonymous": false,
      "inputs": [
        {
          "indexed": true,
          "internalType": "address",
          "name": "owner",
          "type": "address"
        },
        {
          "indexed": true,
          "internalType": "address",
          "name": "approved",
          "type": "address"
        },
        {
          "indexed": true,
          "internalType": "uint256",
          "name": "tokenId",
          "type": "uint256"
        }
      ],
      "name": "Approval",
      "type": "event"
    },
    {
      "anonymous": false,
      "inputs": [
        {
          "indexed": true,
          "internalType": "address",
          "name": "owner",
          "type": "address"
        },
        {
          "indexed": true,
          "internalType": "address",
          "name": "operator",
          "type": "address"
        },
        {
          "indexed": false,
          "internalType": "bool",
          "name": "approved",
          "type": "bool"
        }
      ],
      "name": "ApprovalForAll",
      "type": "event"
    },
    {
      "anonymous": false,
      "inputs": [
        {
          "indexed": true,
          "internalType": "address",
          "name": "previousOwner",
          "type": "address"
        },
        {
          "indexed": true,
          "internalType": "address",
          "name": "newOwner",
          "type": "address"
        }
      ],
      "name": "OwnershipTransferred",
      "type": "event"
    },
    {
      "anonymous": false,
      "inputs": [
        {
          "indexed": true,
          "internalType": "address",
          "name": "from",
          "type": "address"
        },
        {
          "indexed": true,
          "internalType": "address",
          "name": "to",
          "type": "address"
        },
        {
          "indexed": true,
          "internalType": "uint256",
          "name": "tokenId",
          "type": "uint256"
        }
      ],
      "name": "Transfer",
      "type": "event"
    },
    {
      "inputs": [],
      "name": "FREE_ITEMS_COUNT",
      "outputs": [
        {
          "internalType": "uint256",
          "name": "",
          "type": "uint256"
        }
      ],
      "stateMutability": "view",
      "type": "function"
    },
    {
      "inputs": [],
      "name": "MINT_PRICE",
      "outputs": [
        {
          "internalType": "uint256",
          "name": "",
          "type": "uint256"
        }
      ],
      "stateMutability": "view",
      "type": "function"
    },
    {
      "inputs": [],
      "name": "TOTAL_SUPPLY",
      "outputs": [
        {
          "internalType": "uint256",
          "name": "",
          "type": "uint256"
        }
      ],
      "stateMutability": "view",
      "type": "function"
    },
    {
      "inputs": [
        {
          "internalType": "address",
          "name": "to",
          "type": "address"
        },
        {
          "internalType": "uint256",
          "name": "tokenId",
          "type": "uint256"
        }
      ],
      "name": "approve",
      "outputs": [],
      "stateMutability": "nonpayable",
      "type": "function"
    },
    {
      "inputs": [
        {
          "internalType": "address",
          "name": "owner",
          "type": "address"
        }
      ],
      "name": "balanceOf",
      "outputs": [
        {
          "internalType": "uint256",
          "name": "",
          "type": "uint256"
        }
      ],
      "stateMutability": "view",
      "type": "function"
    },
    {
      "inputs": [],
      "name": "baseTokenURI",
      "outputs": [
        {
          "internalType": "string",
          "name": "",
          "type": "string"
        }
      ],
      "stateMutability": "view",
      "type": "function"
    },
    {
      "inputs": [
        {
          "internalType": "uint256",
          "name": "quantity",
          "type": "uint256"
        }
      ],
      "name": "claimByOwner",
      "outputs": [],
      "stateMutability": "payable",
      "type": "function"
    },
    {
      "inputs": [
        {
          "internalType": "uint256",
          "name": "tokenId",
          "type": "uint256"
        }
      ],
      "name": "getApproved",
      "outputs": [
        {
          "internalType": "address",
          "name": "",
          "type": "address"
        }
      ],
      "stateMutability": "view",
      "type": "function"
    },
    {
      "inputs": [
        {
          "internalType": "address",
          "name": "owner",
          "type": "address"
        },
        {
          "internalType": "address",
          "name": "operator",
          "type": "address"
        }
      ],
      "name": "isApprovedForAll",
      "outputs": [
        {
          "internalType": "bool",
          "name": "",
          "type": "bool"
        }
      ],
      "stateMutability": "view",
      "type": "function"
    },
    {
      "inputs": [
        {
          "internalType": "uint256",
          "name": "quantity",
          "type": "uint256"
        }
      ],
      "name": "mintItem",
      "outputs": [],
      "stateMutability": "payable",
      "type": "function"
    },
    {
      "inputs": [],
      "name": "name",
      "outputs": [
        {
          "internalType": "string",
          "name": "",
          "type": "string"
        }
      ],
      "stateMutability": "view",
      "type": "function"
    },
    {
      "inputs": [],
      "name": "owner",
      "outputs": [
        {
          "internalType": "address",
          "name": "",
          "type": "address"
        }
      ],
      "stateMutability": "view",
      "type": "function"
    },
    {
      "inputs": [
        {
          "internalType": "uint256",
          "name": "tokenId",
          "type": "uint256"
        }
      ],
      "name": "ownerOf",
      "outputs": [
        {
          "internalType": "address",
          "name": "",
          "type": "address"
        }
      ],
      "stateMutability": "view",
      "type": "function"
    },
    {
      "inputs": [
        {
          "internalType": "address",
          "name": "dest",
          "type": "address"
        }
      ],
      "name": "payments",
      "outputs": [
        {
          "internalType": "uint256",
          "name": "",
          "type": "uint256"
        }
      ],
      "stateMutability": "view",
      "type": "function"
    },
    {
      "inputs": [],
      "name": "renounceOwnership",
      "outputs": [],
      "stateMutability": "nonpayable",
      "type": "function"
    },
    {
      "inputs": [
        {
          "internalType": "address",
          "name": "from",
          "type": "address"
        },
        {
          "internalType": "address",
          "name": "to",
          "type": "address"
        },
        {
          "internalType": "uint256",
          "name": "tokenId",
          "type": "uint256"
        }
      ],
      "name": "safeTransferFrom",
      "outputs": [],
      "stateMutability": "nonpayable",
      "type": "function"
    },
    {
      "inputs": [
        {
          "internalType": "address",
          "name": "from",
          "type": "address"
        },
        {
          "internalType": "address",
          "name": "to",
          "type": "address"
        },
        {
          "internalType": "uint256",
          "name": "tokenId",
          "type": "uint256"
        },
        {
          "internalType": "bytes",
          "name": "_data",
          "type": "bytes"
        }
      ],
      "name": "safeTransferFrom",
      "outputs": [],
      "stateMutability": "nonpayable",
      "type": "function"
    },
    {
      "inputs": [
        {
          "internalType": "address",
          "name": "operator",
          "type": "address"
        },
        {
          "internalType": "bool",
          "name": "approved",
          "type": "bool"
        }
      ],
      "name": "setApprovalForAll",
      "outputs": [],
      "stateMutability": "nonpayable",
      "type": "function"
    },
    {
      "inputs": [
        {
          "internalType": "bytes4",
          "name": "interfaceId",
          "type": "bytes4"
        }
      ],
      "name": "supportsInterface",
      "outputs": [
        {
          "internalType": "bool",
          "name": "",
          "type": "bool"
        }
      ],
      "stateMutability": "view",
      "type": "function"
    },
    {
      "inputs": [],
      "name": "symbol",
      "outputs": [
        {
          "internalType": "string",
          "name": "",
          "type": "string"
        }
      ],
      "stateMutability": "view",
      "type": "function"
    },
    {
      "inputs": [
        {
          "internalType": "uint256",
          "name": "index",
          "type": "uint256"
        }
      ],
      "name": "tokenByIndex",
      "outputs": [
        {
          "internalType": "uint256",
          "name": "",
          "type": "uint256"
        }
      ],
      "stateMutability": "view",
      "type": "function"
    },
    {
      "inputs": [
        {
          "internalType": "address",
          "name": "owner",
          "type": "address"
        },
        {
          "internalType": "uint256",
          "name": "index",
          "type": "uint256"
        }
      ],
      "name": "tokenOfOwnerByIndex",
      "outputs": [
        {
          "internalType": "uint256",
          "name": "",
          "type": "uint256"
        }
      ],
      "stateMutability": "view",
      "type": "function"
    },
    {
      "inputs": [
        {
          "internalType": "uint256",
          "name": "tokenId",
          "type": "uint256"
        }
      ],
      "name": "tokenURI",
      "outputs": [
        {
          "internalType": "string",
          "name": "",
          "type": "string"
        }
      ],
      "stateMutability": "view",
      "type": "function"
    },
    {
      "inputs": [],
      "name": "totalSupply",
      "outputs": [
        {
          "internalType": "uint256",
          "name": "",
          "type": "uint256"
        }
      ],
      "stateMutability": "view",
      "type": "function"
    },
    {
      "inputs": [
        {
          "internalType": "address",
          "name": "from",
          "type": "address"
        },
        {
          "internalType": "address",
          "name": "to",
          "type": "address"
        },
        {
          "internalType": "uint256",
          "name": "tokenId",
          "type": "uint256"
        }
      ],
      "name": "transferFrom",
      "outputs": [],
      "stateMutability": "nonpayable",
      "type": "function"
    },
    {
      "inputs": [
        {
          "internalType": "address",
          "name": "newOwner",
          "type": "address"
        }
      ],
      "name": "transferOwnership",
      "outputs": [],
      "stateMutability": "nonpayable",
      "type": "function"
    },
    {
      "inputs": [],
      "name": "withdraw",
      "outputs": [],
      "stateMutability": "nonpayable",
      "type": "function"
    },
    {
      "inputs": [],
      "name": "withdrawLegacy",
      "outputs": [],
      "stateMutability": "nonpayable",
      "type": "function"
    },
    {
      "inputs": [
        {
          "internalType": "uint256",
          "name": "_amount",
          "type": "uint256"
        }
      ],
      "name": "withdrawLegacy",
      "outputs": [],
      "stateMutability": "nonpayable",
      "type": "function"
    },
    {
      "inputs": [
        {
          "internalType": "address payable",
          "name": "payee",
          "type": "address"
        }
      ],
      "name": "withdrawPayments",
      "outputs": [],
      "stateMutability": "nonpayable",
      "type": "function"
    }
  ],
  "bytecode": "0x60a06040523480156200001157600080fd5b506040518060400160405280600d81526020017f58446f6f646c65734e46545633000000000000000000000000000000000000008152506040518060400160405280600481526020017f58444c330000000000000000000000000000000000000000000000000000000081525081600190805190602001906200009692919062000237565b508060029080519060200190620000af92919062000237565b505050620000d2620000c66200016960201b60201c565b6200017160201b60201c565b604051620000e090620002c8565b604051809103906000f080158015620000fd573d6000803e3d6000fd5b5073ffffffffffffffffffffffffffffffffffffffff1660808173ffffffffffffffffffffffffffffffffffffffff1681525050604051806060016040528060278152602001620049f060279139600890805190602001906200016292919062000237565b506200035a565b600033905090565b6000600760009054906101000a900473ffffffffffffffffffffffffffffffffffffffff16905081600760006101000a81548173ffffffffffffffffffffffffffffffffffffffff021916908373ffffffffffffffffffffffffffffffffffffffff1602179055508173ffffffffffffffffffffffffffffffffffffffff168173ffffffffffffffffffffffffffffffffffffffff167f8be0079c531659141344cd1fd0a4f28419497f9722a3daafe3b4186f6b6457e060405160405180910390a35050565b828054620002459062000324565b90600052602060002090601f016020900481019282620002695760008555620002b5565b82601f106200028457805160ff1916838001178555620002b5565b82800160010185558215620002b5579182015b82811115620002b457825182559160200191906001019062000297565b5b509050620002c49190620002d6565b5090565b610d168062003cda83390190565b5b80821115620002f1576000816000905550600101620002d7565b5090565b7f4e487b7100000000000000000000000000000000000000000000000000000000600052602260045260246000fd5b600060028204905060018216806200033d57607f821691505b60208210811415620003545762000353620002f5565b5b50919050565b60805161395d6200037d60003960008181610e0b01526117b9015261395d6000f3fe6080604052600436106101cd5760003560e01c8063715018a6116100f7578063c002d23d11610095578063e2982c2111610064578063e2982c2114610655578063e985e9c514610692578063eff896d2146106cf578063f2fde38b146106eb576101cd565b8063c002d23d14610597578063c87b56dd146105c2578063cd87fcfe146105ff578063d547cfb71461062a576101cd565b8063902d55a5116100d1578063902d55a5146104ef57806395d89b411461051a578063a22cb46514610545578063b88d4fde1461056e576101cd565b8063715018a6146104845780637195e28f1461049b5780638da5cb5b146104c4576101cd565b80632f745c591161016f57806342842e0e1161013e57806342842e0e146103a45780634f6ccce7146103cd5780636352211e1461040a57806370a0823114610447576101cd565b80632f745c591461031057806331b3eb941461034d5780633ccfd60b146103765780633d2d5eb31461038d576101cd565b8063095ea7b3116101ab578063095ea7b31461027757806317fb8594146102a057806318160ddd146102bc57806323b872dd146102e7576101cd565b806301ffc9a7146101d257806306fdde031461020f578063081812fc1461023a575b600080fd5b3480156101de57600080fd5b506101f960048036038101906101f49190612cf7565b610714565b6040516102069190612d3f565b60405180910390f35b34801561021b57600080fd5b5061022461085e565b6040516102319190612df3565b60405180910390f35b34801561024657600080fd5b50610261600480360381019061025c9190612e4b565b6108f0565b60405161026e9190612eb9565b60405180910390f35b34801561028357600080fd5b5061029e60048036038101906102999190612f00565b61096c565b005b6102ba60048036038101906102b59190612e4b565b610a77565b005b3480156102c857600080fd5b506102d1610b9d565b6040516102de9190612f4f565b60405180910390f35b3480156102f357600080fd5b5061030e60048036038101906103099190612f6a565b610bf2565b005b34801561031c57600080fd5b5061033760048036038101906103329190612f00565b610c02565b6040516103449190612f4f565b60405180910390f35b34801561035957600080fd5b50610374600480360381019061036f9190612ffb565b610e09565b005b34801561038257600080fd5b5061038b610e97565b005b34801561039957600080fd5b506103a2610f60565b005b3480156103b057600080fd5b506103cb60048036038101906103c69190612f6a565b611032565b005b3480156103d957600080fd5b506103f460048036038101906103ef9190612e4b565b611052565b6040516104019190612f4f565b60405180910390f35b34801561041657600080fd5b50610431600480360381019061042c9190612e4b565b6111c3565b60405161043e9190612eb9565b60405180910390f35b34801561045357600080fd5b5061046e60048036038101906104699190613028565b6111d9565b60405161047b9190612f4f565b60405180910390f35b34801561049057600080fd5b506104996112a9565b005b3480156104a757600080fd5b506104c260048036038101906104bd9190612e4b565b611331565b005b3480156104d057600080fd5b506104d9611404565b6040516104e69190612eb9565b60405180910390f35b3480156104fb57600080fd5b5061050461142e565b6040516105119190612f4f565b60405180910390f35b34801561052657600080fd5b5061052f611434565b60405161053c9190612df3565b60405180910390f35b34801561055157600080fd5b5061056c60048036038101906105679190613081565b6114c6565b005b34801561057a57600080fd5b50610595600480360381019061059091906131f6565b61163e565b005b3480156105a357600080fd5b506105ac611691565b6040516105b99190612f4f565b60405180910390f35b3480156105ce57600080fd5b506105e960048036038101906105e49190612e4b565b61169c565b6040516105f69190612df3565b60405180910390f35b34801561060b57600080fd5b50610614611722565b6040516106219190612f4f565b60405180910390f35b34801561063657600080fd5b5061063f611727565b60405161064c9190612df3565b60405180910390f35b34801561066157600080fd5b5061067c60048036038101906106779190613028565b6117b5565b6040516106899190612f4f565b60405180910390f35b34801561069e57600080fd5b506106b960048036038101906106b49190613279565b611858565b6040516106c69190612d3f565b60405180910390f35b6106e960048036038101906106e49190612e4b565b6118ec565b005b3480156106f757600080fd5b50610712600480360381019061070d9190613028565b6119d2565b005b60007f80ac58cd000000000000000000000000000000000000000000000000000000007bffffffffffffffffffffffffffffffffffffffffffffffffffffffff1916827bffffffffffffffffffffffffffffffffffffffffffffffffffffffff191614806107df57507f5b5e139f000000000000000000000000000000000000000000000000000000007bffffffffffffffffffffffffffffffffffffffffffffffffffffffff1916827bffffffffffffffffffffffffffffffffffffffffffffffffffffffff1916145b8061084757507f780e9d63000000000000000000000000000000000000000000000000000000007bffffffffffffffffffffffffffffffffffffffffffffffffffffffff1916827bffffffffffffffffffffffffffffffffffffffffffffffffffffffff1916145b80610857575061085682611aca565b5b9050919050565b60606001805461086d906132e8565b80601f0160208091040260200160405190810160405280929190818152602001828054610899906132e8565b80156108e65780601f106108bb576101008083540402835291602001916108e6565b820191906000526020600020905b8154815290600101906020018083116108c957829003601f168201915b5050505050905090565b60006108fb82611b34565b610931576040517fcf4700e400000000000000000000000000000000000000000000000000000000815260040160405180910390fd5b6005600083815260200190815260200160002060009054906101000a900473ffffffffffffffffffffffffffffffffffffffff169050919050565b6000610977826111c3565b90508073ffffffffffffffffffffffffffffffffffffffff168373ffffffffffffffffffffffffffffffffffffffff1614156109df576040517f943f7b8c00000000000000000000000000000000000000000000000000000000815260040160405180910390fd5b8073ffffffffffffffffffffffffffffffffffffffff166109fe611b9c565b73ffffffffffffffffffffffffffffffffffffffff1614158015610a305750610a2e81610a29611b9c565b611858565b155b15610a67576040517fcfb3b94200000000000000000000000000000000000000000000000000000000815260040160405180910390fd5b610a72838383611ba4565b505050565b6000610a81610b9d565b9050600082118015610a945750600a8211155b610ad3576040517f08c379a0000000000000000000000000000000000000000000000000000000008152600401610aca90613366565b60405180910390fd5b6127108282610ae291906133b5565b1115610b23576040517f08c379a0000000000000000000000000000000000000000000000000000000008152600401610b1a90613457565b60405180910390fd5b60018282610b3191906133b5565b111580610b50575081662386f26fc10000610b4c9190613477565b3410155b610b8f576040517f08c379a0000000000000000000000000000000000000000000000000000000008152600401610b869061351d565b60405180910390fd5b610b993383611c56565b5050565b60008060109054906101000a90046fffffffffffffffffffffffffffffffff1660008054906101000a90046fffffffffffffffffffffffffffffffff16036fffffffffffffffffffffffffffffffff16905090565b610bfd838383611c74565b505050565b6000610c0d836111d9565b8210610c45576040517f0ddac30e00000000000000000000000000000000000000000000000000000000815260040160405180910390fd5b60008060009054906101000a90046fffffffffffffffffffffffffffffffff166fffffffffffffffffffffffffffffffff16905060008060005b83811015610dfd576000600360008381526020019081526020016000206040518060600160405290816000820160009054906101000a900473ffffffffffffffffffffffffffffffffffffffff1673ffffffffffffffffffffffffffffffffffffffff1673ffffffffffffffffffffffffffffffffffffffff1681526020016000820160149054906101000a900467ffffffffffffffff1667ffffffffffffffff1667ffffffffffffffff16815260200160008201601c9054906101000a900460ff1615151515815250509050806040015115610d5c5750610df0565b600073ffffffffffffffffffffffffffffffffffffffff16816000015173ffffffffffffffffffffffffffffffffffffffff1614610d9c57806000015192505b8773ffffffffffffffffffffffffffffffffffffffff168373ffffffffffffffffffffffffffffffffffffffff161415610dee5786841415610de5578195505050505050610e03565b83806001019450505b505b8080600101915050610c7f565b50600080fd5b92915050565b7f000000000000000000000000000000000000000000000000000000000000000073ffffffffffffffffffffffffffffffffffffffff166351cff8d9826040518263ffffffff1660e01b8152600401610e62919061354c565b600060405180830381600087803b158015610e7c57600080fd5b505af1158015610e90573d6000803e3d6000fd5b5050505050565b610e9f611b9c565b73ffffffffffffffffffffffffffffffffffffffff16610ebd611404565b73ffffffffffffffffffffffffffffffffffffffff1614610f13576040517f08c379a0000000000000000000000000000000000000000000000000000000008152600401610f0a906135b3565b60405180910390fd5b6000610f1d611404565b90508073ffffffffffffffffffffffffffffffffffffffff166108fc479081150290604051600060405180830381858888f19350505050610f5d57600080fd5b50565b610f68611b9c565b73ffffffffffffffffffffffffffffffffffffffff16610f86611404565b73ffffffffffffffffffffffffffffffffffffffff1614610fdc576040517f08c379a0000000000000000000000000000000000000000000000000000000008152600401610fd3906135b3565b60405180910390fd5b6000610fe6611404565b90508073ffffffffffffffffffffffffffffffffffffffff166108fc479081150290604051600060405180830381858888f1935050505015801561102e573d6000803e3d6000fd5b5050565b61104d8383836040518060200160405280600081525061163e565b505050565b60008060008054906101000a90046fffffffffffffffffffffffffffffffff166fffffffffffffffffffffffffffffffff1690506000805b8281101561118b576000600360008381526020019081526020016000206040518060600160405290816000820160009054906101000a900473ffffffffffffffffffffffffffffffffffffffff1673ffffffffffffffffffffffffffffffffffffffff1673ffffffffffffffffffffffffffffffffffffffff1681526020016000820160149054906101000a900467ffffffffffffffff1667ffffffffffffffff1667ffffffffffffffff16815260200160008201601c9054906101000a900460ff1615151515815250509050806040015161117d578583141561117457819450505050506111be565b82806001019350505b50808060010191505061108a565b506040517fa723001c00000000000000000000000000000000000000000000000000000000815260040160405180910390fd5b919050565b60006111ce82612191565b600001519050919050565b60008073ffffffffffffffffffffffffffffffffffffffff168273ffffffffffffffffffffffffffffffffffffffff161415611241576040517f8f4eb60400000000000000000000000000000000000000000000000000000000815260040160405180910390fd5b600460008373ffffffffffffffffffffffffffffffffffffffff1673ffffffffffffffffffffffffffffffffffffffff16815260200190815260200160002060000160009054906101000a900467ffffffffffffffff1667ffffffffffffffff169050919050565b6112b1611b9c565b73ffffffffffffffffffffffffffffffffffffffff166112cf611404565b73ffffffffffffffffffffffffffffffffffffffff1614611325576040517f08c379a000000000000000000000000000000000000000000000000000000000815260040161131c906135b3565b60405180910390fd5b61132f6000612439565b565b611339611b9c565b73ffffffffffffffffffffffffffffffffffffffff16611357611404565b73ffffffffffffffffffffffffffffffffffffffff16146113ad576040517f08c379a00000000000000000000000000000000000000000000000000000000081526004016113a4906135b3565b60405180910390fd5b60006113b7611404565b90508073ffffffffffffffffffffffffffffffffffffffff166108fc839081150290604051600060405180830381858888f193505050501580156113ff573d6000803e3d6000fd5b505050565b6000600760009054906101000a900473ffffffffffffffffffffffffffffffffffffffff16905090565b61271081565b606060028054611443906132e8565b80601f016020809104026020016040519081016040528092919081815260200182805461146f906132e8565b80156114bc5780601f10611491576101008083540402835291602001916114bc565b820191906000526020600020905b81548152906001019060200180831161149f57829003601f168201915b5050505050905090565b6114ce611b9c565b73ffffffffffffffffffffffffffffffffffffffff168273ffffffffffffffffffffffffffffffffffffffff161415611533576040517fb06307db00000000000000000000000000000000000000000000000000000000815260040160405180910390fd5b8060066000611540611b9c565b73ffffffffffffffffffffffffffffffffffffffff1673ffffffffffffffffffffffffffffffffffffffff16815260200190815260200160002060008473ffffffffffffffffffffffffffffffffffffffff1673ffffffffffffffffffffffffffffffffffffffff16815260200190815260200160002060006101000a81548160ff0219169083151502179055508173ffffffffffffffffffffffffffffffffffffffff166115ed611b9c565b73ffffffffffffffffffffffffffffffffffffffff167f17307eab39ab6107e8899845ad3d59bd9653f200f220920489ca2b5937696c31836040516116329190612d3f565b60405180910390a35050565b611649848484611c74565b611655848484846124ff565b61168b576040517fd1a57ed600000000000000000000000000000000000000000000000000000000815260040160405180910390fd5b50505050565b662386f26fc1000081565b60606116a782611b34565b6116dd576040517fa14c4b5000000000000000000000000000000000000000000000000000000000815260040160405180910390fd5b6116e561267e565b6116fb612710846116f691906133b5565b612710565b60405160200161170c92919061360f565b6040516020818303038152906040529050919050565b600181565b60088054611734906132e8565b80601f0160208091040260200160405190810160405280929190818152602001828054611760906132e8565b80156117ad5780601f10611782576101008083540402835291602001916117ad565b820191906000526020600020905b81548152906001019060200180831161179057829003601f168201915b505050505081565b60007f000000000000000000000000000000000000000000000000000000000000000073ffffffffffffffffffffffffffffffffffffffff1663e3a9db1a836040518263ffffffff1660e01b81526004016118109190612eb9565b602060405180830381865afa15801561182d573d6000803e3d6000fd5b505050506040513d601f19601f820116820180604052508101906118519190613648565b9050919050565b6000600660008473ffffffffffffffffffffffffffffffffffffffff1673ffffffffffffffffffffffffffffffffffffffff16815260200190815260200160002060008373ffffffffffffffffffffffffffffffffffffffff1673ffffffffffffffffffffffffffffffffffffffff16815260200190815260200160002060009054906101000a900460ff16905092915050565b6118f4611b9c565b73ffffffffffffffffffffffffffffffffffffffff16611912611404565b73ffffffffffffffffffffffffffffffffffffffff1614611968576040517f08c379a000000000000000000000000000000000000000000000000000000000815260040161195f906135b3565b60405180910390fd5b6000611972610b9d565b9050612710828261198391906133b5565b11156119c4576040517f08c379a00000000000000000000000000000000000000000000000000000000081526004016119bb90613457565b60405180910390fd5b6119ce3383611c56565b5050565b6119da611b9c565b73ffffffffffffffffffffffffffffffffffffffff166119f8611404565b73ffffffffffffffffffffffffffffffffffffffff1614611a4e576040517f08c379a0000000000000000000000000000000000000000000000000000000008152600401611a45906135b3565b60405180910390fd5b600073ffffffffffffffffffffffffffffffffffffffff168173ffffffffffffffffffffffffffffffffffffffff161415611abe576040517f08c379a0000000000000000000000000000000000000000000000000000000008152600401611ab5906136e7565b60405180910390fd5b611ac781612439565b50565b60007f01ffc9a7000000000000000000000000000000000000000000000000000000007bffffffffffffffffffffffffffffffffffffffffffffffffffffffff1916827bffffffffffffffffffffffffffffffffffffffffffffffffffffffff1916149050919050565b60008060009054906101000a90046fffffffffffffffffffffffffffffffff166fffffffffffffffffffffffffffffffff1682108015611b95575060036000838152602001908152602001600020600001601c9054906101000a900460ff16155b9050919050565b600033905090565b826005600084815260200190815260200160002060006101000a81548173ffffffffffffffffffffffffffffffffffffffff021916908373ffffffffffffffffffffffffffffffffffffffff160217905550818373ffffffffffffffffffffffffffffffffffffffff168273ffffffffffffffffffffffffffffffffffffffff167f8c5be1e5ebec7d5bd14f71427d1e84f3dd0314c0f7b2291e5b200ac8c7c3b92560405160405180910390a4505050565b611c70828260405180602001604052806000815250612871565b5050565b6000611c7f82612191565b90506000816000015173ffffffffffffffffffffffffffffffffffffffff16611ca6611b9c565b73ffffffffffffffffffffffffffffffffffffffff161480611cd95750611cd88260000151611cd3611b9c565b611858565b5b80611d1e5750611ce7611b9c565b73ffffffffffffffffffffffffffffffffffffffff16611d06846108f0565b73ffffffffffffffffffffffffffffffffffffffff16145b905080611d57576040517f59c896be00000000000000000000000000000000000000000000000000000000815260040160405180910390fd5b8473ffffffffffffffffffffffffffffffffffffffff16826000015173ffffffffffffffffffffffffffffffffffffffff1614611dc0576040517fa114810000000000000000000000000000000000000000000000000000000000815260040160405180910390fd5b600073ffffffffffffffffffffffffffffffffffffffff168473ffffffffffffffffffffffffffffffffffffffff161415611e27576040517fea553b3400000000000000000000000000000000000000000000000000000000815260040160405180910390fd5b611e348585856001612883565b611e446000848460000151611ba4565b6001600460008773ffffffffffffffffffffffffffffffffffffffff1673ffffffffffffffffffffffffffffffffffffffff16815260200190815260200160002060000160008282829054906101000a900467ffffffffffffffff160392506101000a81548167ffffffffffffffff021916908367ffffffffffffffff1602179055506001600460008673ffffffffffffffffffffffffffffffffffffffff1673ffffffffffffffffffffffffffffffffffffffff16815260200190815260200160002060000160008282829054906101000a900467ffffffffffffffff160192506101000a81548167ffffffffffffffff021916908367ffffffffffffffff160217905550836003600085815260200190815260200160002060000160006101000a81548173ffffffffffffffffffffffffffffffffffffffff021916908373ffffffffffffffffffffffffffffffffffffffff160217905550426003600085815260200190815260200160002060000160146101000a81548167ffffffffffffffff021916908367ffffffffffffffff1602179055506000600184019050600073ffffffffffffffffffffffffffffffffffffffff166003600083815260200190815260200160002060000160009054906101000a900473ffffffffffffffffffffffffffffffffffffffff1673ffffffffffffffffffffffffffffffffffffffff1614156121215760008054906101000a90046fffffffffffffffffffffffffffffffff166fffffffffffffffffffffffffffffffff168110156121205782600001516003600083815260200190815260200160002060000160006101000a81548173ffffffffffffffffffffffffffffffffffffffff021916908373ffffffffffffffffffffffffffffffffffffffff16021790555082602001516003600083815260200190815260200160002060000160146101000a81548167ffffffffffffffff021916908367ffffffffffffffff1602179055505b5b50828473ffffffffffffffffffffffffffffffffffffffff168673ffffffffffffffffffffffffffffffffffffffff167fddf252ad1be2c89b69c2b068fc378daa952ba7f163c4a11628f55a4df523b3ef60405160405180910390a461218a8585856001612889565b5050505050565b612199612c48565b600082905060008054906101000a90046fffffffffffffffffffffffffffffffff166fffffffffffffffffffffffffffffffff16811015612402576000600360008381526020019081526020016000206040518060600160405290816000820160009054906101000a900473ffffffffffffffffffffffffffffffffffffffff1673ffffffffffffffffffffffffffffffffffffffff1673ffffffffffffffffffffffffffffffffffffffff1681526020016000820160149054906101000a900467ffffffffffffffff1667ffffffffffffffff1667ffffffffffffffff16815260200160008201601c9054906101000a900460ff1615151515815250509050806040015161240057600073ffffffffffffffffffffffffffffffffffffffff16816000015173ffffffffffffffffffffffffffffffffffffffff16146122e4578092505050612434565b5b6001156123ff57818060019003925050600360008381526020019081526020016000206040518060600160405290816000820160009054906101000a900473ffffffffffffffffffffffffffffffffffffffff1673ffffffffffffffffffffffffffffffffffffffff1673ffffffffffffffffffffffffffffffffffffffff1681526020016000820160149054906101000a900467ffffffffffffffff1667ffffffffffffffff1667ffffffffffffffff16815260200160008201601c9054906101000a900460ff1615151515815250509050600073ffffffffffffffffffffffffffffffffffffffff16816000015173ffffffffffffffffffffffffffffffffffffffff16146123fa578092505050612434565b6122e5565b5b505b6040517fdf2d9b4200000000000000000000000000000000000000000000000000000000815260040160405180910390fd5b919050565b6000600760009054906101000a900473ffffffffffffffffffffffffffffffffffffffff16905081600760006101000a81548173ffffffffffffffffffffffffffffffffffffffff021916908373ffffffffffffffffffffffffffffffffffffffff1602179055508173ffffffffffffffffffffffffffffffffffffffff168173ffffffffffffffffffffffffffffffffffffffff167f8be0079c531659141344cd1fd0a4f28419497f9722a3daafe3b4186f6b6457e060405160405180910390a35050565b60006125208473ffffffffffffffffffffffffffffffffffffffff1661288f565b15612671578373ffffffffffffffffffffffffffffffffffffffff1663150b7a02612549611b9c565b8786866040518563ffffffff1660e01b815260040161256b949392919061375c565b6020604051808303816000875af19250505080156125a757506040513d601f19601f820116820180604052508101906125a491906137bd565b60015b612621573d80600081146125d7576040519150601f19603f3d011682016040523d82523d6000602084013e6125dc565b606091505b50600081511415612619576040517fd1a57ed600000000000000000000000000000000000000000000000000000000815260040160405180910390fd5b805181602001fd5b63150b7a0260e01b7bffffffffffffffffffffffffffffffffffffffffffffffffffffffff1916817bffffffffffffffffffffffffffffffffffffffffffffffffffffffff191614915050612676565b600190505b949350505050565b60606008805461268d906132e8565b80601f01602080910402602001604051908101604052809291908181526020018280546126b9906132e8565b80156127065780601f106126db57610100808354040283529160200191612706565b820191906000526020600020905b8154815290600101906020018083116126e957829003601f168201915b5050505050905090565b60606000821415612758576040518060400160405280600181526020017f3000000000000000000000000000000000000000000000000000000000000000815250905061286c565b600082905060005b6000821461278a578080612773906137ea565b915050600a826127839190613862565b9150612760565b60008167ffffffffffffffff8111156127a6576127a56130cb565b5b6040519080825280601f01601f1916602001820160405280156127d85781602001600182028036833780820191505090505b5090505b60008514612865576001826127f19190613893565b9150600a8561280091906138c7565b603061280c91906133b5565b60f81b818381518110612822576128216138f8565b5b60200101907effffffffffffffffffffffffffffffffffffffffffffffffffffffffffffff1916908160001a905350600a8561285e9190613862565b94506127dc565b8093505050505b919050565b61287e83838360016128b2565b505050565b50505050565b50505050565b6000808273ffffffffffffffffffffffffffffffffffffffff163b119050919050565b60008060009054906101000a90046fffffffffffffffffffffffffffffffff166fffffffffffffffffffffffffffffffff169050600073ffffffffffffffffffffffffffffffffffffffff168573ffffffffffffffffffffffffffffffffffffffff16141561294d576040517f2e07630000000000000000000000000000000000000000000000000000000000815260040160405180910390fd5b6000841415612988576040517fb562e8dd00000000000000000000000000000000000000000000000000000000815260040160405180910390fd5b6129956000868387612883565b83600460008773ffffffffffffffffffffffffffffffffffffffff1673ffffffffffffffffffffffffffffffffffffffff16815260200190815260200160002060000160008282829054906101000a900467ffffffffffffffff160192506101000a81548167ffffffffffffffff021916908367ffffffffffffffff16021790555083600460008773ffffffffffffffffffffffffffffffffffffffff1673ffffffffffffffffffffffffffffffffffffffff16815260200190815260200160002060000160088282829054906101000a900467ffffffffffffffff160192506101000a81548167ffffffffffffffff021916908367ffffffffffffffff160217905550846003600083815260200190815260200160002060000160006101000a81548173ffffffffffffffffffffffffffffffffffffffff021916908373ffffffffffffffffffffffffffffffffffffffff160217905550426003600083815260200190815260200160002060000160146101000a81548167ffffffffffffffff021916908367ffffffffffffffff160217905550600081905060005b85811015612bfa57818773ffffffffffffffffffffffffffffffffffffffff16600073ffffffffffffffffffffffffffffffffffffffff167fddf252ad1be2c89b69c2b068fc378daa952ba7f163c4a11628f55a4df523b3ef60405160405180910390a4838015612bae5750612bac60008884886124ff565b155b15612be5576040517fd1a57ed600000000000000000000000000000000000000000000000000000000815260040160405180910390fd5b81806001019250508080600101915050612b33565b50806000806101000a8154816fffffffffffffffffffffffffffffffff02191690836fffffffffffffffffffffffffffffffff16021790555050612c416000868387612889565b5050505050565b6040518060600160405280600073ffffffffffffffffffffffffffffffffffffffff168152602001600067ffffffffffffffff1681526020016000151581525090565b6000604051905090565b600080fd5b600080fd5b60007fffffffff0000000000000000000000000000000000000000000000000000000082169050919050565b612cd481612c9f565b8114612cdf57600080fd5b50565b600081359050612cf181612ccb565b92915050565b600060208284031215612d0d57612d0c612c95565b5b6000612d1b84828501612ce2565b91505092915050565b60008115159050919050565b612d3981612d24565b82525050565b6000602082019050612d546000830184612d30565b92915050565b600081519050919050565b600082825260208201905092915050565b60005b83811015612d94578082015181840152602081019050612d79565b83811115612da3576000848401525b50505050565b6000601f19601f8301169050919050565b6000612dc582612d5a565b612dcf8185612d65565b9350612ddf818560208601612d76565b612de881612da9565b840191505092915050565b60006020820190508181036000830152612e0d8184612dba565b905092915050565b6000819050919050565b612e2881612e15565b8114612e3357600080fd5b50565b600081359050612e4581612e1f565b92915050565b600060208284031215612e6157612e60612c95565b5b6000612e6f84828501612e36565b91505092915050565b600073ffffffffffffffffffffffffffffffffffffffff82169050919050565b6000612ea382612e78565b9050919050565b612eb381612e98565b82525050565b6000602082019050612ece6000830184612eaa565b92915050565b612edd81612e98565b8114612ee857600080fd5b50565b600081359050612efa81612ed4565b92915050565b60008060408385031215612f1757612f16612c95565b5b6000612f2585828601612eeb565b9250506020612f3685828601612e36565b9150509250929050565b612f4981612e15565b82525050565b6000602082019050612f646000830184612f40565b92915050565b600080600060608486031215612f8357612f82612c95565b5b6000612f9186828701612eeb565b9350506020612fa286828701612eeb565b9250506040612fb386828701612e36565b9150509250925092565b6000612fc882612e78565b9050919050565b612fd881612fbd565b8114612fe357600080fd5b50565b600081359050612ff581612fcf565b92915050565b60006020828403121561301157613010612c95565b5b600061301f84828501612fe6565b91505092915050565b60006020828403121561303e5761303d612c95565b5b600061304c84828501612eeb565b91505092915050565b61305e81612d24565b811461306957600080fd5b50565b60008135905061307b81613055565b92915050565b6000806040838503121561309857613097612c95565b5b60006130a685828601612eeb565b92505060206130b78582860161306c565b9150509250929050565b600080fd5b600080fd5b7f4e487b7100000000000000000000000000000000000000000000000000000000600052604160045260246000fd5b61310382612da9565b810181811067ffffffffffffffff82111715613122576131216130cb565b5b80604052505050565b6000613135612c8b565b905061314182826130fa565b919050565b600067ffffffffffffffff821115613161576131606130cb565b5b61316a82612da9565b9050602081019050919050565b82818337600083830152505050565b600061319961319484613146565b61312b565b9050828152602081018484840111156131b5576131b46130c6565b5b6131c0848285613177565b509392505050565b600082601f8301126131dd576131dc6130c1565b5b81356131ed848260208601613186565b91505092915050565b600080600080608085870312156132105761320f612c95565b5b600061321e87828801612eeb565b945050602061322f87828801612eeb565b935050604061324087828801612e36565b925050606085013567ffffffffffffffff81111561326157613260612c9a565b5b61326d878288016131c8565b91505092959194509250565b600080604083850312156132905761328f612c95565b5b600061329e85828601612eeb565b92505060206132af85828601612eeb565b9150509250929050565b7f4e487b7100000000000000000000000000000000000000000000000000000000600052602260045260246000fd5b6000600282049050600182168061330057607f821691505b60208210811415613314576133136132b9565b5b50919050565b7f496e76616c6964207175616e746974792e000000000000000000000000000000600082015250565b6000613350601183612d65565b915061335b8261331a565b602082019050919050565b6000602082019050818103600083015261337f81613343565b9050919050565b7f4e487b7100000000000000000000000000000000000000000000000000000000600052601160045260246000fd5b60006133c082612e15565b91506133cb83612e15565b9250827fffffffffffffffffffffffffffffffffffffffffffffffffffffffffffffffff03821115613400576133ff613386565b5b828201905092915050565b7f45786365656473206d6178696d756d20737570706c7900000000000000000000600082015250565b6000613441601683612d65565b915061344c8261340b565b602082019050919050565b6000602082019050818103600083015261347081613434565b9050919050565b600061348282612e15565b915061348d83612e15565b9250817fffffffffffffffffffffffffffffffffffffffffffffffffffffffffffffffff04831182151516156134c6576134c5613386565b5b828202905092915050565b7f4e6f7420656e6f7567687420737570706c792e00000000000000000000000000600082015250565b6000613507601383612d65565b9150613512826134d1565b602082019050919050565b60006020820190508181036000830152613536816134fa565b9050919050565b61354681612fbd565b82525050565b6000602082019050613561600083018461353d565b92915050565b7f4f776e61626c653a2063616c6c6572206973206e6f7420746865206f776e6572600082015250565b600061359d602083612d65565b91506135a882613567565b602082019050919050565b600060208201905081810360008301526135cc81613590565b9050919050565b600081905092915050565b60006135e982612d5a565b6135f381856135d3565b9350613603818560208601612d76565b80840191505092915050565b600061361b82856135de565b915061362782846135de565b91508190509392505050565b60008151905061364281612e1f565b92915050565b60006020828403121561365e5761365d612c95565b5b600061366c84828501613633565b91505092915050565b7f4f776e61626c653a206e6577206f776e657220697320746865207a65726f206160008201527f6464726573730000000000000000000000000000000000000000000000000000602082015250565b60006136d1602683612d65565b91506136dc82613675565b604082019050919050565b60006020820190508181036000830152613700816136c4565b9050919050565b600081519050919050565b600082825260208201905092915050565b600061372e82613707565b6137388185613712565b9350613748818560208601612d76565b61375181612da9565b840191505092915050565b60006080820190506137716000830187612eaa565b61377e6020830186612eaa565b61378b6040830185612f40565b818103606083015261379d8184613723565b905095945050505050565b6000815190506137b781612ccb565b92915050565b6000602082840312156137d3576137d2612c95565b5b60006137e1848285016137a8565b91505092915050565b60006137f582612e15565b91507fffffffffffffffffffffffffffffffffffffffffffffffffffffffffffffffff82141561382857613827613386565b5b600182019050919050565b7f4e487b7100000000000000000000000000000000000000000000000000000000600052601260045260246000fd5b600061386d82612e15565b915061387883612e15565b92508261388857613887613833565b5b828204905092915050565b600061389e82612e15565b91506138a983612e15565b9250828210156138bc576138bb613386565b5b828203905092915050565b60006138d282612e15565b91506138dd83612e15565b9250826138ed576138ec613833565b5b828206905092915050565b7f4e487b7100000000000000000000000000000000000000000000000000000000600052603260045260246000fdfea2646970667358221220affc08dc2b3ec1e6e4d3628627d9ed661e9442bef2bcee0049ab59694029c01364736f6c634300080c0033608060405234801561001057600080fd5b5061002d61002261003260201b60201c565b61003a60201b60201c565b6100fe565b600033905090565b60008060009054906101000a900473ffffffffffffffffffffffffffffffffffffffff169050816000806101000a81548173ffffffffffffffffffffffffffffffffffffffff021916908373ffffffffffffffffffffffffffffffffffffffff1602179055508173ffffffffffffffffffffffffffffffffffffffff168173ffffffffffffffffffffffffffffffffffffffff167f8be0079c531659141344cd1fd0a4f28419497f9722a3daafe3b4186f6b6457e060405160405180910390a35050565b610c098061010d6000396000f3fe6080604052600436106100555760003560e01c806351cff8d91461005a578063715018a6146100835780638da5cb5b1461009a578063e3a9db1a146100c5578063f2fde38b14610102578063f340fa011461012b575b600080fd5b34801561006657600080fd5b50610081600480360381019061007c9190610805565b610147565b005b34801561008f57600080fd5b506100986102c7565b005b3480156100a657600080fd5b506100af61034f565b6040516100bc9190610853565b60405180910390f35b3480156100d157600080fd5b506100ec60048036038101906100e7919061089a565b610378565b6040516100f991906108e0565b60405180910390f35b34801561010e57600080fd5b506101296004803603810190610124919061089a565b6103c1565b005b6101456004803603810190610140919061089a565b6104b9565b005b61014f6105e2565b73ffffffffffffffffffffffffffffffffffffffff1661016d61034f565b73ffffffffffffffffffffffffffffffffffffffff16146101c3576040517f08c379a00000000000000000000000000000000000000000000000000000000081526004016101ba90610958565b60405180910390fd5b6000600160008373ffffffffffffffffffffffffffffffffffffffff1673ffffffffffffffffffffffffffffffffffffffff1681526020019081526020016000205490506000600160008473ffffffffffffffffffffffffffffffffffffffff1673ffffffffffffffffffffffffffffffffffffffff16815260200190815260200160002081905550610275818373ffffffffffffffffffffffffffffffffffffffff166105ea90919063ffffffff16565b8173ffffffffffffffffffffffffffffffffffffffff167f7084f5476618d8e60b11ef0d7d3f06914655adb8793e28ff7f018d4c76d505d5826040516102bb91906108e0565b60405180910390a25050565b6102cf6105e2565b73ffffffffffffffffffffffffffffffffffffffff166102ed61034f565b73ffffffffffffffffffffffffffffffffffffffff1614610343576040517f08c379a000000000000000000000000000000000000000000000000000000000815260040161033a90610958565b60405180910390fd5b61034d60006106de565b565b60008060009054906101000a900473ffffffffffffffffffffffffffffffffffffffff16905090565b6000600160008373ffffffffffffffffffffffffffffffffffffffff1673ffffffffffffffffffffffffffffffffffffffff168152602001908152602001600020549050919050565b6103c96105e2565b73ffffffffffffffffffffffffffffffffffffffff166103e761034f565b73ffffffffffffffffffffffffffffffffffffffff161461043d576040517f08c379a000000000000000000000000000000000000000000000000000000000815260040161043490610958565b60405180910390fd5b600073ffffffffffffffffffffffffffffffffffffffff168173ffffffffffffffffffffffffffffffffffffffff1614156104ad576040517f08c379a00000000000000000000000000000000000000000000000000000000081526004016104a4906109ea565b60405180910390fd5b6104b6816106de565b50565b6104c16105e2565b73ffffffffffffffffffffffffffffffffffffffff166104df61034f565b73ffffffffffffffffffffffffffffffffffffffff1614610535576040517f08c379a000000000000000000000000000000000000000000000000000000000815260040161052c90610958565b60405180910390fd5b600034905080600160008473ffffffffffffffffffffffffffffffffffffffff1673ffffffffffffffffffffffffffffffffffffffff16815260200190815260200160002060008282546105899190610a39565b925050819055508173ffffffffffffffffffffffffffffffffffffffff167f2da466a7b24304f47e87fa2e1e5a81b9831ce54fec19055ce277ca2f39ba42c4826040516105d691906108e0565b60405180910390a25050565b600033905090565b8047101561062d576040517f08c379a000000000000000000000000000000000000000000000000000000000815260040161062490610adb565b60405180910390fd5b60008273ffffffffffffffffffffffffffffffffffffffff168260405161065390610b2c565b60006040518083038185875af1925050503d8060008114610690576040519150601f19603f3d011682016040523d82523d6000602084013e610695565b606091505b50509050806106d9576040517f08c379a00000000000000000000000000000000000000000000000000000000081526004016106d090610bb3565b60405180910390fd5b505050565b60008060009054906101000a900473ffffffffffffffffffffffffffffffffffffffff169050816000806101000a81548173ffffffffffffffffffffffffffffffffffffffff021916908373ffffffffffffffffffffffffffffffffffffffff1602179055508173ffffffffffffffffffffffffffffffffffffffff168173ffffffffffffffffffffffffffffffffffffffff167f8be0079c531659141344cd1fd0a4f28419497f9722a3daafe3b4186f6b6457e060405160405180910390a35050565b600080fd5b600073ffffffffffffffffffffffffffffffffffffffff82169050919050565b60006107d2826107a7565b9050919050565b6107e2816107c7565b81146107ed57600080fd5b50565b6000813590506107ff816107d9565b92915050565b60006020828403121561081b5761081a6107a2565b5b6000610829848285016107f0565b91505092915050565b600061083d826107a7565b9050919050565b61084d81610832565b82525050565b60006020820190506108686000830184610844565b92915050565b61087781610832565b811461088257600080fd5b50565b6000813590506108948161086e565b92915050565b6000602082840312156108b0576108af6107a2565b5b60006108be84828501610885565b91505092915050565b6000819050919050565b6108da816108c7565b82525050565b60006020820190506108f560008301846108d1565b92915050565b600082825260208201905092915050565b7f4f776e61626c653a2063616c6c6572206973206e6f7420746865206f776e6572600082015250565b60006109426020836108fb565b915061094d8261090c565b602082019050919050565b6000602082019050818103600083015261097181610935565b9050919050565b7f4f776e61626c653a206e6577206f776e657220697320746865207a65726f206160008201527f6464726573730000000000000000000000000000000000000000000000000000602082015250565b60006109d46026836108fb565b91506109df82610978565b604082019050919050565b60006020820190508181036000830152610a03816109c7565b9050919050565b7f4e487b7100000000000000000000000000000000000000000000000000000000600052601160045260246000fd5b6000610a44826108c7565b9150610a4f836108c7565b9250827fffffffffffffffffffffffffffffffffffffffffffffffffffffffffffffffff03821115610a8457610a83610a0a565b5b828201905092915050565b7f416464726573733a20696e73756666696369656e742062616c616e6365000000600082015250565b6000610ac5601d836108fb565b9150610ad082610a8f565b602082019050919050565b60006020820190508181036000830152610af481610ab8565b9050919050565b600081905092915050565b50565b6000610b16600083610afb565b9150610b2182610b06565b600082019050919050565b6000610b3782610b09565b9150819050919050565b7f416464726573733a20756e61626c6520746f2073656e642076616c75652c207260008201527f6563697069656e74206d61792068617665207265766572746564000000000000602082015250565b6000610b9d603a836108fb565b9150610ba882610b41565b604082019050919050565b60006020820190508181036000830152610bcc81610b90565b905091905056fea264697066735822122084c8b930ff9aa246ee2da868605262413225104dc3442ec3a7ea47a525cc805d64736f6c634300080c003368747470733a2f2f6170692e6d696e743078446f6f646c65732e78797a2f6d657461646174612f",
  "linkReferences": {},
  "deployedLinkReferences": {}
}