{
  "_format": "hh-sol-artifact-1",
  "contractName": "XDoodlesNFTV3",
  "sourceName": "contracts/XDoodlesNFTV3.sol",
  "abi": [
    {
      "inputs": [],
      "stateMutability": "nonpayable",
      "type": "constructor"
    },
    {
      "inputs": [],
      "name": "ApprovalCallerNotOwnerNorApproved",
      "type": "error"
    },
    {
      "inputs": [],
      "name": "ApprovalQueryForNonexistentToken",
      "type": "error"
    },
    {
      "inputs": [],
      "name": "ApprovalToCurrentOwner",
      "type": "error"
    },
    {
      "inputs": [],
      "name": "ApproveToCaller",
      "type": "error"
    },
    {
      "inputs": [],
      "name": "BalanceQueryForZeroAddress",
      "type": "error"
    },
    {
      "inputs": [],
      "name": "MintToZeroAddress",
      "type": "error"
    },
    {
      "inputs": [],
      "name": "MintZeroQuantity",
      "type": "error"
    },
    {
      "inputs": [],
      "name": "OwnerIndexOutOfBounds",
      "type": "error"
    },
    {
      "inputs": [],
      "name": "OwnerQueryForNonexistentToken",
      "type": "error"
    },
    {
      "inputs": [],
      "name": "TokenIndexOutOfBounds",
      "type": "error"
    },
    {
      "inputs": [],
      "name": "TransferCallerNotOwnerNorApproved",
      "type": "error"
    },
    {
      "inputs": [],
      "name": "TransferFromIncorrectOwner",
      "type": "error"
    },
    {
      "inputs": [],
      "name": "TransferToNonERC721ReceiverImplementer",
      "type": "error"
    },
    {
      "inputs": [],
      "name": "TransferToZeroAddress",
      "type": "error"
    },
    {
      "inputs": [],
      "name": "URIQueryForNonexistentToken",
      "type": "error"
    },
    {
      "anonymous": false,
      "inputs": [
        {
          "indexed": true,
          "internalType": "address",
          "name": "owner",
          "type": "address"
        },
        {
          "indexed": true,
          "internalType": "address",
          "name": "approved",
          "type": "address"
        },
        {
          "indexed": true,
          "internalType": "uint256",
          "name": "tokenId",
          "type": "uint256"
        }
      ],
      "name": "Approval",
      "type": "event"
    },
    {
      "anonymous": false,
      "inputs": [
        {
          "indexed": true,
          "internalType": "address",
          "name": "owner",
          "type": "address"
        },
        {
          "indexed": true,
          "internalType": "address",
          "name": "operator",
          "type": "address"
        },
        {
          "indexed": false,
          "internalType": "bool",
          "name": "approved",
          "type": "bool"
        }
      ],
      "name": "ApprovalForAll",
      "type": "event"
    },
    {
      "anonymous": false,
      "inputs": [
        {
          "indexed": true,
          "internalType": "address",
          "name": "from",
          "type": "address"
        },
        {
          "indexed": true,
          "internalType": "address",
          "name": "to",
          "type": "address"
        },
        {
          "indexed": true,
          "internalType": "uint256",
          "name": "tokenId",
          "type": "uint256"
        }
      ],
      "name": "Transfer",
      "type": "event"
    },
    {
      "inputs": [
        {
          "internalType": "address",
          "name": "to",
          "type": "address"
        },
        {
          "internalType": "uint256",
          "name": "tokenId",
          "type": "uint256"
        }
      ],
      "name": "approve",
      "outputs": [],
      "stateMutability": "nonpayable",
      "type": "function"
    },
    {
      "inputs": [
        {
          "internalType": "address",
          "name": "owner",
          "type": "address"
        }
      ],
      "name": "balanceOf",
      "outputs": [
        {
          "internalType": "uint256",
          "name": "",
          "type": "uint256"
        }
      ],
      "stateMutability": "view",
      "type": "function"
    },
    {
      "inputs": [
        {
          "internalType": "uint256",
          "name": "tokenId",
          "type": "uint256"
        }
      ],
      "name": "getApproved",
      "outputs": [
        {
          "internalType": "address",
          "name": "",
          "type": "address"
        }
      ],
      "stateMutability": "view",
      "type": "function"
    },
    {
      "inputs": [
        {
          "internalType": "address",
          "name": "owner",
          "type": "address"
        },
        {
          "internalType": "address",
          "name": "operator",
          "type": "address"
        }
      ],
      "name": "isApprovedForAll",
      "outputs": [
        {
          "internalType": "bool",
          "name": "",
          "type": "bool"
        }
      ],
      "stateMutability": "view",
      "type": "function"
    },
    {
      "inputs": [
        {
          "internalType": "uint256",
          "name": "quantity",
          "type": "uint256"
        }
      ],
      "name": "mintItem",
      "outputs": [],
      "stateMutability": "payable",
      "type": "function"
    },
    {
      "inputs": [],
      "name": "name",
      "outputs": [
        {
          "internalType": "string",
          "name": "",
          "type": "string"
        }
      ],
      "stateMutability": "view",
      "type": "function"
    },
    {
      "inputs": [
        {
          "internalType": "uint256",
          "name": "tokenId",
          "type": "uint256"
        }
      ],
      "name": "ownerOf",
      "outputs": [
        {
          "internalType": "address",
          "name": "",
          "type": "address"
        }
      ],
      "stateMutability": "view",
      "type": "function"
    },
    {
      "inputs": [
        {
          "internalType": "address",
          "name": "from",
          "type": "address"
        },
        {
          "internalType": "address",
          "name": "to",
          "type": "address"
        },
        {
          "internalType": "uint256",
          "name": "tokenId",
          "type": "uint256"
        }
      ],
      "name": "safeTransferFrom",
      "outputs": [],
      "stateMutability": "nonpayable",
      "type": "function"
    },
    {
      "inputs": [
        {
          "internalType": "address",
          "name": "from",
          "type": "address"
        },
        {
          "internalType": "address",
          "name": "to",
          "type": "address"
        },
        {
          "internalType": "uint256",
          "name": "tokenId",
          "type": "uint256"
        },
        {
          "internalType": "bytes",
          "name": "_data",
          "type": "bytes"
        }
      ],
      "name": "safeTransferFrom",
      "outputs": [],
      "stateMutability": "nonpayable",
      "type": "function"
    },
    {
      "inputs": [
        {
          "internalType": "address",
          "name": "operator",
          "type": "address"
        },
        {
          "internalType": "bool",
          "name": "approved",
          "type": "bool"
        }
      ],
      "name": "setApprovalForAll",
      "outputs": [],
      "stateMutability": "nonpayable",
      "type": "function"
    },
    {
      "inputs": [
        {
          "internalType": "bytes4",
          "name": "interfaceId",
          "type": "bytes4"
        }
      ],
      "name": "supportsInterface",
      "outputs": [
        {
          "internalType": "bool",
          "name": "",
          "type": "bool"
        }
      ],
      "stateMutability": "view",
      "type": "function"
    },
    {
      "inputs": [],
      "name": "symbol",
      "outputs": [
        {
          "internalType": "string",
          "name": "",
          "type": "string"
        }
      ],
      "stateMutability": "view",
      "type": "function"
    },
    {
      "inputs": [
        {
          "internalType": "uint256",
          "name": "index",
          "type": "uint256"
        }
      ],
      "name": "tokenByIndex",
      "outputs": [
        {
          "internalType": "uint256",
          "name": "",
          "type": "uint256"
        }
      ],
      "stateMutability": "view",
      "type": "function"
    },
    {
      "inputs": [
        {
          "internalType": "address",
          "name": "owner",
          "type": "address"
        },
        {
          "internalType": "uint256",
          "name": "index",
          "type": "uint256"
        }
      ],
      "name": "tokenOfOwnerByIndex",
      "outputs": [
        {
          "internalType": "uint256",
          "name": "",
          "type": "uint256"
        }
      ],
      "stateMutability": "view",
      "type": "function"
    },
    {
      "inputs": [
        {
          "internalType": "uint256",
          "name": "tokenId",
          "type": "uint256"
        }
      ],
      "name": "tokenURI",
      "outputs": [
        {
          "internalType": "string",
          "name": "",
          "type": "string"
        }
      ],
      "stateMutability": "view",
      "type": "function"
    },
    {
      "inputs": [],
      "name": "totalSupply",
      "outputs": [
        {
          "internalType": "uint256",
          "name": "",
          "type": "uint256"
        }
      ],
      "stateMutability": "view",
      "type": "function"
    },
    {
      "inputs": [
        {
          "internalType": "address",
          "name": "from",
          "type": "address"
        },
        {
          "internalType": "address",
          "name": "to",
          "type": "address"
        },
        {
          "internalType": "uint256",
          "name": "tokenId",
          "type": "uint256"
        }
      ],
      "name": "transferFrom",
      "outputs": [],
      "stateMutability": "nonpayable",
      "type": "function"
    }
  ],
  "bytecode": "0x60806040523480156200001157600080fd5b506040518060400160405280600d81526020017f58446f6f646c65734e46545633000000000000000000000000000000000000008152506040518060400160405280600481526020017f58444c3300000000000000000000000000000000000000000000000000000000815250816001908051906020019062000096929190620000b8565b508060029080519060200190620000af929190620000b8565b505050620001cd565b828054620000c69062000197565b90600052602060002090601f016020900481019282620000ea576000855562000136565b82601f106200010557805160ff191683800117855562000136565b8280016001018555821562000136579182015b828111156200013557825182559160200191906001019062000118565b5b50905062000145919062000149565b5090565b5b80821115620001645760008160009055506001016200014a565b5090565b7f4e487b7100000000000000000000000000000000000000000000000000000000600052602260045260246000fd5b60006002820490506001821680620001b057607f821691505b60208210811415620001c757620001c662000168565b5b50919050565b612a4e80620001dd6000396000f3fe6080604052600436106100fe5760003560e01c806342842e0e1161009557806395d89b411161006457806395d89b411461035e578063a22cb46514610389578063b88d4fde146103b2578063c87b56dd146103db578063e985e9c514610418576100fe565b806342842e0e1461027e5780634f6ccce7146102a75780636352211e146102e457806370a0823114610321576100fe565b806317fb8594116100d157806317fb8594146101d157806318160ddd146101ed57806323b872dd146102185780632f745c5914610241576100fe565b806301ffc9a71461010357806306fdde0314610140578063081812fc1461016b578063095ea7b3146101a8575b600080fd5b34801561010f57600080fd5b5061012a600480360381019061012591906120eb565b610455565b6040516101379190612133565b60405180910390f35b34801561014c57600080fd5b5061015561059f565b60405161016291906121e7565b60405180910390f35b34801561017757600080fd5b50610192600480360381019061018d919061223f565b610631565b60405161019f91906122ad565b60405180910390f35b3480156101b457600080fd5b506101cf60048036038101906101ca91906122f4565b6106ad565b005b6101eb60048036038101906101e6919061223f565b6107b8565b005b3480156101f957600080fd5b506102026107c5565b60405161020f9190612343565b60405180910390f35b34801561022457600080fd5b5061023f600480360381019061023a919061235e565b61081a565b005b34801561024d57600080fd5b50610268600480360381019061026391906122f4565b61082a565b6040516102759190612343565b60405180910390f35b34801561028a57600080fd5b506102a560048036038101906102a0919061235e565b610a31565b005b3480156102b357600080fd5b506102ce60048036038101906102c9919061223f565b610a51565b6040516102db9190612343565b60405180910390f35b3480156102f057600080fd5b5061030b6004803603810190610306919061223f565b610bc2565b60405161031891906122ad565b60405180910390f35b34801561032d57600080fd5b50610348600480360381019061034391906123b1565b610bd8565b6040516103559190612343565b60405180910390f35b34801561036a57600080fd5b50610373610ca8565b60405161038091906121e7565b60405180910390f35b34801561039557600080fd5b506103b060048036038101906103ab919061240a565b610d3a565b005b3480156103be57600080fd5b506103d960048036038101906103d4919061257f565b610eb2565b005b3480156103e757600080fd5b5061040260048036038101906103fd919061223f565b610f05565b60405161040f91906121e7565b60405180910390f35b34801561042457600080fd5b5061043f600480360381019061043a9190612602565b610f82565b60405161044c9190612133565b60405180910390f35b60007f80ac58cd000000000000000000000000000000000000000000000000000000007bffffffffffffffffffffffffffffffffffffffffffffffffffffffff1916827bffffffffffffffffffffffffffffffffffffffffffffffffffffffff1916148061052057507f5b5e139f000000000000000000000000000000000000000000000000000000007bffffffffffffffffffffffffffffffffffffffffffffffffffffffff1916827bffffffffffffffffffffffffffffffffffffffffffffffffffffffff1916145b8061058857507f780e9d63000000000000000000000000000000000000000000000000000000007bffffffffffffffffffffffffffffffffffffffffffffffffffffffff1916827bffffffffffffffffffffffffffffffffffffffffffffffffffffffff1916145b80610598575061059782611016565b5b9050919050565b6060600180546105ae90612671565b80601f01602080910402602001604051908101604052809291908181526020018280546105da90612671565b80156106275780601f106105fc57610100808354040283529160200191610627565b820191906000526020600020905b81548152906001019060200180831161060a57829003601f168201915b5050505050905090565b600061063c82611080565b610672576040517fcf4700e400000000000000000000000000000000000000000000000000000000815260040160405180910390fd5b6005600083815260200190815260200160002060009054906101000a900473ffffffffffffffffffffffffffffffffffffffff169050919050565b60006106b882610bc2565b90508073ffffffffffffffffffffffffffffffffffffffff168373ffffffffffffffffffffffffffffffffffffffff161415610720576040517f943f7b8c00000000000000000000000000000000000000000000000000000000815260040160405180910390fd5b8073ffffffffffffffffffffffffffffffffffffffff1661073f6110e8565b73ffffffffffffffffffffffffffffffffffffffff1614158015610771575061076f8161076a6110e8565b610f82565b155b156107a8576040517fcfb3b94200000000000000000000000000000000000000000000000000000000815260040160405180910390fd5b6107b38383836110f0565b505050565b6107c233826111a2565b50565b60008060109054906101000a90046fffffffffffffffffffffffffffffffff1660008054906101000a90046fffffffffffffffffffffffffffffffff16036fffffffffffffffffffffffffffffffff16905090565b6108258383836111c0565b505050565b600061083583610bd8565b821061086d576040517f0ddac30e00000000000000000000000000000000000000000000000000000000815260040160405180910390fd5b60008060009054906101000a90046fffffffffffffffffffffffffffffffff166fffffffffffffffffffffffffffffffff16905060008060005b83811015610a25576000600360008381526020019081526020016000206040518060600160405290816000820160009054906101000a900473ffffffffffffffffffffffffffffffffffffffff1673ffffffffffffffffffffffffffffffffffffffff1673ffffffffffffffffffffffffffffffffffffffff1681526020016000820160149054906101000a900467ffffffffffffffff1667ffffffffffffffff1667ffffffffffffffff16815260200160008201601c9054906101000a900460ff16151515158152505090508060400151156109845750610a18565b600073ffffffffffffffffffffffffffffffffffffffff16816000015173ffffffffffffffffffffffffffffffffffffffff16146109c457806000015192505b8773ffffffffffffffffffffffffffffffffffffffff168373ffffffffffffffffffffffffffffffffffffffff161415610a165786841415610a0d578195505050505050610a2b565b83806001019450505b505b80806001019150506108a7565b50600080fd5b92915050565b610a4c83838360405180602001604052806000815250610eb2565b505050565b60008060008054906101000a90046fffffffffffffffffffffffffffffffff166fffffffffffffffffffffffffffffffff1690506000805b82811015610b8a576000600360008381526020019081526020016000206040518060600160405290816000820160009054906101000a900473ffffffffffffffffffffffffffffffffffffffff1673ffffffffffffffffffffffffffffffffffffffff1673ffffffffffffffffffffffffffffffffffffffff1681526020016000820160149054906101000a900467ffffffffffffffff1667ffffffffffffffff1667ffffffffffffffff16815260200160008201601c9054906101000a900460ff16151515158152505090508060400151610b7c5785831415610b735781945050505050610bbd565b82806001019350505b508080600101915050610a89565b506040517fa723001c00000000000000000000000000000000000000000000000000000000815260040160405180910390fd5b919050565b6000610bcd826116dd565b600001519050919050565b60008073ffffffffffffffffffffffffffffffffffffffff168273ffffffffffffffffffffffffffffffffffffffff161415610c40576040517f8f4eb60400000000000000000000000000000000000000000000000000000000815260040160405180910390fd5b600460008373ffffffffffffffffffffffffffffffffffffffff1673ffffffffffffffffffffffffffffffffffffffff16815260200190815260200160002060000160009054906101000a900467ffffffffffffffff1667ffffffffffffffff169050919050565b606060028054610cb790612671565b80601f0160208091040260200160405190810160405280929190818152602001828054610ce390612671565b8015610d305780601f10610d0557610100808354040283529160200191610d30565b820191906000526020600020905b815481529060010190602001808311610d1357829003601f168201915b5050505050905090565b610d426110e8565b73ffffffffffffffffffffffffffffffffffffffff168273ffffffffffffffffffffffffffffffffffffffff161415610da7576040517fb06307db00000000000000000000000000000000000000000000000000000000815260040160405180910390fd5b8060066000610db46110e8565b73ffffffffffffffffffffffffffffffffffffffff1673ffffffffffffffffffffffffffffffffffffffff16815260200190815260200160002060008473ffffffffffffffffffffffffffffffffffffffff1673ffffffffffffffffffffffffffffffffffffffff16815260200190815260200160002060006101000a81548160ff0219169083151502179055508173ffffffffffffffffffffffffffffffffffffffff16610e616110e8565b73ffffffffffffffffffffffffffffffffffffffff167f17307eab39ab6107e8899845ad3d59bd9653f200f220920489ca2b5937696c3183604051610ea69190612133565b60405180910390a35050565b610ebd8484846111c0565b610ec984848484611985565b610eff576040517fd1a57ed600000000000000000000000000000000000000000000000000000000815260040160405180910390fd5b50505050565b6060610f1082611080565b610f46576040517fa14c4b5000000000000000000000000000000000000000000000000000000000815260040160405180910390fd5b610f5c61271083610f5791906126d2565b611b04565b604051602001610f6c91906127d6565b6040516020818303038152906040529050919050565b6000600660008473ffffffffffffffffffffffffffffffffffffffff1673ffffffffffffffffffffffffffffffffffffffff16815260200190815260200160002060008373ffffffffffffffffffffffffffffffffffffffff1673ffffffffffffffffffffffffffffffffffffffff16815260200190815260200160002060009054906101000a900460ff16905092915050565b60007f01ffc9a7000000000000000000000000000000000000000000000000000000007bffffffffffffffffffffffffffffffffffffffffffffffffffffffff1916827bffffffffffffffffffffffffffffffffffffffffffffffffffffffff1916149050919050565b60008060009054906101000a90046fffffffffffffffffffffffffffffffff166fffffffffffffffffffffffffffffffff16821080156110e1575060036000838152602001908152602001600020600001601c9054906101000a900460ff16155b9050919050565b600033905090565b826005600084815260200190815260200160002060006101000a81548173ffffffffffffffffffffffffffffffffffffffff021916908373ffffffffffffffffffffffffffffffffffffffff160217905550818373ffffffffffffffffffffffffffffffffffffffff168273ffffffffffffffffffffffffffffffffffffffff167f8c5be1e5ebec7d5bd14f71427d1e84f3dd0314c0f7b2291e5b200ac8c7c3b92560405160405180910390a4505050565b6111bc828260405180602001604052806000815250611c65565b5050565b60006111cb826116dd565b90506000816000015173ffffffffffffffffffffffffffffffffffffffff166111f26110e8565b73ffffffffffffffffffffffffffffffffffffffff1614806112255750611224826000015161121f6110e8565b610f82565b5b8061126a57506112336110e8565b73ffffffffffffffffffffffffffffffffffffffff1661125284610631565b73ffffffffffffffffffffffffffffffffffffffff16145b9050806112a3576040517f59c896be00000000000000000000000000000000000000000000000000000000815260040160405180910390fd5b8473ffffffffffffffffffffffffffffffffffffffff16826000015173ffffffffffffffffffffffffffffffffffffffff161461130c576040517fa114810000000000000000000000000000000000000000000000000000000000815260040160405180910390fd5b600073ffffffffffffffffffffffffffffffffffffffff168473ffffffffffffffffffffffffffffffffffffffff161415611373576040517fea553b3400000000000000000000000000000000000000000000000000000000815260040160405180910390fd5b6113808585856001611c77565b61139060008484600001516110f0565b6001600460008773ffffffffffffffffffffffffffffffffffffffff1673ffffffffffffffffffffffffffffffffffffffff16815260200190815260200160002060000160008282829054906101000a900467ffffffffffffffff160392506101000a81548167ffffffffffffffff021916908367ffffffffffffffff1602179055506001600460008673ffffffffffffffffffffffffffffffffffffffff1673ffffffffffffffffffffffffffffffffffffffff16815260200190815260200160002060000160008282829054906101000a900467ffffffffffffffff160192506101000a81548167ffffffffffffffff021916908367ffffffffffffffff160217905550836003600085815260200190815260200160002060000160006101000a81548173ffffffffffffffffffffffffffffffffffffffff021916908373ffffffffffffffffffffffffffffffffffffffff160217905550426003600085815260200190815260200160002060000160146101000a81548167ffffffffffffffff021916908367ffffffffffffffff1602179055506000600184019050600073ffffffffffffffffffffffffffffffffffffffff166003600083815260200190815260200160002060000160009054906101000a900473ffffffffffffffffffffffffffffffffffffffff1673ffffffffffffffffffffffffffffffffffffffff16141561166d5760008054906101000a90046fffffffffffffffffffffffffffffffff166fffffffffffffffffffffffffffffffff1681101561166c5782600001516003600083815260200190815260200160002060000160006101000a81548173ffffffffffffffffffffffffffffffffffffffff021916908373ffffffffffffffffffffffffffffffffffffffff16021790555082602001516003600083815260200190815260200160002060000160146101000a81548167ffffffffffffffff021916908367ffffffffffffffff1602179055505b5b50828473ffffffffffffffffffffffffffffffffffffffff168673ffffffffffffffffffffffffffffffffffffffff167fddf252ad1be2c89b69c2b068fc378daa952ba7f163c4a11628f55a4df523b3ef60405160405180910390a46116d68585856001611c7d565b5050505050565b6116e561203c565b600082905060008054906101000a90046fffffffffffffffffffffffffffffffff166fffffffffffffffffffffffffffffffff1681101561194e576000600360008381526020019081526020016000206040518060600160405290816000820160009054906101000a900473ffffffffffffffffffffffffffffffffffffffff1673ffffffffffffffffffffffffffffffffffffffff1673ffffffffffffffffffffffffffffffffffffffff1681526020016000820160149054906101000a900467ffffffffffffffff1667ffffffffffffffff1667ffffffffffffffff16815260200160008201601c9054906101000a900460ff1615151515815250509050806040015161194c57600073ffffffffffffffffffffffffffffffffffffffff16816000015173ffffffffffffffffffffffffffffffffffffffff1614611830578092505050611980565b5b60011561194b57818060019003925050600360008381526020019081526020016000206040518060600160405290816000820160009054906101000a900473ffffffffffffffffffffffffffffffffffffffff1673ffffffffffffffffffffffffffffffffffffffff1673ffffffffffffffffffffffffffffffffffffffff1681526020016000820160149054906101000a900467ffffffffffffffff1667ffffffffffffffff1667ffffffffffffffff16815260200160008201601c9054906101000a900460ff1615151515815250509050600073ffffffffffffffffffffffffffffffffffffffff16816000015173ffffffffffffffffffffffffffffffffffffffff1614611946578092505050611980565b611831565b5b505b6040517fdf2d9b4200000000000000000000000000000000000000000000000000000000815260040160405180910390fd5b919050565b60006119a68473ffffffffffffffffffffffffffffffffffffffff16611c83565b15611af7578373ffffffffffffffffffffffffffffffffffffffff1663150b7a026119cf6110e8565b8786866040518563ffffffff1660e01b81526004016119f1949392919061284d565b6020604051808303816000875af1925050508015611a2d57506040513d601f19601f82011682018060405250810190611a2a91906128ae565b60015b611aa7573d8060008114611a5d576040519150601f19603f3d011682016040523d82523d6000602084013e611a62565b606091505b50600081511415611a9f576040517fd1a57ed600000000000000000000000000000000000000000000000000000000815260040160405180910390fd5b805181602001fd5b63150b7a0260e01b7bffffffffffffffffffffffffffffffffffffffffffffffffffffffff1916817bffffffffffffffffffffffffffffffffffffffffffffffffffffffff191614915050611afc565b600190505b949350505050565b60606000821415611b4c576040518060400160405280600181526020017f30000000000000000000000000000000000000000000000000000000000000008152509050611c60565b600082905060005b60008214611b7e578080611b67906128db565b915050600a82611b779190612953565b9150611b54565b60008167ffffffffffffffff811115611b9a57611b99612454565b5b6040519080825280601f01601f191660200182016040528015611bcc5781602001600182028036833780820191505090505b5090505b60008514611c5957600182611be59190612984565b9150600a85611bf491906129b8565b6030611c0091906126d2565b60f81b818381518110611c1657611c156129e9565b5b60200101907effffffffffffffffffffffffffffffffffffffffffffffffffffffffffffff1916908160001a905350600a85611c529190612953565b9450611bd0565b8093505050505b919050565b611c728383836001611ca6565b505050565b50505050565b50505050565b6000808273ffffffffffffffffffffffffffffffffffffffff163b119050919050565b60008060009054906101000a90046fffffffffffffffffffffffffffffffff166fffffffffffffffffffffffffffffffff169050600073ffffffffffffffffffffffffffffffffffffffff168573ffffffffffffffffffffffffffffffffffffffff161415611d41576040517f2e07630000000000000000000000000000000000000000000000000000000000815260040160405180910390fd5b6000841415611d7c576040517fb562e8dd00000000000000000000000000000000000000000000000000000000815260040160405180910390fd5b611d896000868387611c77565b83600460008773ffffffffffffffffffffffffffffffffffffffff1673ffffffffffffffffffffffffffffffffffffffff16815260200190815260200160002060000160008282829054906101000a900467ffffffffffffffff160192506101000a81548167ffffffffffffffff021916908367ffffffffffffffff16021790555083600460008773ffffffffffffffffffffffffffffffffffffffff1673ffffffffffffffffffffffffffffffffffffffff16815260200190815260200160002060000160088282829054906101000a900467ffffffffffffffff160192506101000a81548167ffffffffffffffff021916908367ffffffffffffffff160217905550846003600083815260200190815260200160002060000160006101000a81548173ffffffffffffffffffffffffffffffffffffffff021916908373ffffffffffffffffffffffffffffffffffffffff160217905550426003600083815260200190815260200160002060000160146101000a81548167ffffffffffffffff021916908367ffffffffffffffff160217905550600081905060005b85811015611fee57818773ffffffffffffffffffffffffffffffffffffffff16600073ffffffffffffffffffffffffffffffffffffffff167fddf252ad1be2c89b69c2b068fc378daa952ba7f163c4a11628f55a4df523b3ef60405160405180910390a4838015611fa25750611fa06000888488611985565b155b15611fd9576040517fd1a57ed600000000000000000000000000000000000000000000000000000000815260040160405180910390fd5b81806001019250508080600101915050611f27565b50806000806101000a8154816fffffffffffffffffffffffffffffffff02191690836fffffffffffffffffffffffffffffffff160217905550506120356000868387611c7d565b5050505050565b6040518060600160405280600073ffffffffffffffffffffffffffffffffffffffff168152602001600067ffffffffffffffff1681526020016000151581525090565b6000604051905090565b600080fd5b600080fd5b60007fffffffff0000000000000000000000000000000000000000000000000000000082169050919050565b6120c881612093565b81146120d357600080fd5b50565b6000813590506120e5816120bf565b92915050565b60006020828403121561210157612100612089565b5b600061210f848285016120d6565b91505092915050565b60008115159050919050565b61212d81612118565b82525050565b60006020820190506121486000830184612124565b92915050565b600081519050919050565b600082825260208201905092915050565b60005b8381101561218857808201518184015260208101905061216d565b83811115612197576000848401525b50505050565b6000601f19601f8301169050919050565b60006121b98261214e565b6121c38185612159565b93506121d381856020860161216a565b6121dc8161219d565b840191505092915050565b6000602082019050818103600083015261220181846121ae565b905092915050565b6000819050919050565b61221c81612209565b811461222757600080fd5b50565b60008135905061223981612213565b92915050565b60006020828403121561225557612254612089565b5b60006122638482850161222a565b91505092915050565b600073ffffffffffffffffffffffffffffffffffffffff82169050919050565b60006122978261226c565b9050919050565b6122a78161228c565b82525050565b60006020820190506122c2600083018461229e565b92915050565b6122d18161228c565b81146122dc57600080fd5b50565b6000813590506122ee816122c8565b92915050565b6000806040838503121561230b5761230a612089565b5b6000612319858286016122df565b925050602061232a8582860161222a565b9150509250929050565b61233d81612209565b82525050565b60006020820190506123586000830184612334565b92915050565b60008060006060848603121561237757612376612089565b5b6000612385868287016122df565b9350506020612396868287016122df565b92505060406123a78682870161222a565b9150509250925092565b6000602082840312156123c7576123c6612089565b5b60006123d5848285016122df565b91505092915050565b6123e781612118565b81146123f257600080fd5b50565b600081359050612404816123de565b92915050565b6000806040838503121561242157612420612089565b5b600061242f858286016122df565b9250506020612440858286016123f5565b9150509250929050565b600080fd5b600080fd5b7f4e487b7100000000000000000000000000000000000000000000000000000000600052604160045260246000fd5b61248c8261219d565b810181811067ffffffffffffffff821117156124ab576124aa612454565b5b80604052505050565b60006124be61207f565b90506124ca8282612483565b919050565b600067ffffffffffffffff8211156124ea576124e9612454565b5b6124f38261219d565b9050602081019050919050565b82818337600083830152505050565b600061252261251d846124cf565b6124b4565b90508281526020810184848401111561253e5761253d61244f565b5b612549848285612500565b509392505050565b600082601f8301126125665761256561244a565b5b813561257684826020860161250f565b91505092915050565b6000806000806080858703121561259957612598612089565b5b60006125a7878288016122df565b94505060206125b8878288016122df565b93505060406125c98782880161222a565b925050606085013567ffffffffffffffff8111156125ea576125e961208e565b5b6125f687828801612551565b91505092959194509250565b6000806040838503121561261957612618612089565b5b6000612627858286016122df565b9250506020612638858286016122df565b9150509250929050565b7f4e487b7100000000000000000000000000000000000000000000000000000000600052602260045260246000fd5b6000600282049050600182168061268957607f821691505b6020821081141561269d5761269c612642565b5b50919050565b7f4e487b7100000000000000000000000000000000000000000000000000000000600052601160045260246000fd5b60006126dd82612209565b91506126e883612209565b9250827fffffffffffffffffffffffffffffffffffffffffffffffffffffffffffffffff0382111561271d5761271c6126a3565b5b828201905092915050565b600081905092915050565b7f68747470733a2f2f6170692e6d696e743078446f6f646c65732e78797a2f6d6560008201527f7461646174612f00000000000000000000000000000000000000000000000000602082015250565b600061278f602783612728565b915061279a82612733565b602782019050919050565b60006127b08261214e565b6127ba8185612728565b93506127ca81856020860161216a565b80840191505092915050565b60006127e182612782565b91506127ed82846127a5565b915081905092915050565b600081519050919050565b600082825260208201905092915050565b600061281f826127f8565b6128298185612803565b935061283981856020860161216a565b6128428161219d565b840191505092915050565b6000608082019050612862600083018761229e565b61286f602083018661229e565b61287c6040830185612334565b818103606083015261288e8184612814565b905095945050505050565b6000815190506128a8816120bf565b92915050565b6000602082840312156128c4576128c3612089565b5b60006128d284828501612899565b91505092915050565b60006128e682612209565b91507fffffffffffffffffffffffffffffffffffffffffffffffffffffffffffffffff821415612919576129186126a3565b5b600182019050919050565b7f4e487b7100000000000000000000000000000000000000000000000000000000600052601260045260246000fd5b600061295e82612209565b915061296983612209565b92508261297957612978612924565b5b828204905092915050565b600061298f82612209565b915061299a83612209565b9250828210156129ad576129ac6126a3565b5b828203905092915050565b60006129c382612209565b91506129ce83612209565b9250826129de576129dd612924565b5b828206905092915050565b7f4e487b7100000000000000000000000000000000000000000000000000000000600052603260045260246000fdfea26469706673582212204d9493579d4d499439924fc691fe89828b9c35aff3bddc9a6cd51587fb183f7a64736f6c634300080c0033",
  "linkReferences": {},
  "deployedLinkReferences": {}
}