{
  "_format": "hh-sol-artifact-1",
  "contractName": "XDoodlesNFTV3",
  "sourceName": "contracts/XDoodlesNFTV3.sol",
  "abi": [
    {
      "inputs": [],
      "stateMutability": "nonpayable",
      "type": "constructor"
    },
    {
      "inputs": [],
      "name": "ApprovalCallerNotOwnerNorApproved",
      "type": "error"
    },
    {
      "inputs": [],
      "name": "ApprovalQueryForNonexistentToken",
      "type": "error"
    },
    {
      "inputs": [],
      "name": "ApprovalToCurrentOwner",
      "type": "error"
    },
    {
      "inputs": [],
      "name": "ApproveToCaller",
      "type": "error"
    },
    {
      "inputs": [],
      "name": "BalanceQueryForZeroAddress",
      "type": "error"
    },
    {
      "inputs": [],
      "name": "MintToZeroAddress",
      "type": "error"
    },
    {
      "inputs": [],
      "name": "MintZeroQuantity",
      "type": "error"
    },
    {
      "inputs": [],
      "name": "OwnerIndexOutOfBounds",
      "type": "error"
    },
    {
      "inputs": [],
      "name": "OwnerQueryForNonexistentToken",
      "type": "error"
    },
    {
      "inputs": [],
      "name": "TokenIndexOutOfBounds",
      "type": "error"
    },
    {
      "inputs": [],
      "name": "TransferCallerNotOwnerNorApproved",
      "type": "error"
    },
    {
      "inputs": [],
      "name": "TransferFromIncorrectOwner",
      "type": "error"
    },
    {
      "inputs": [],
      "name": "TransferToNonERC721ReceiverImplementer",
      "type": "error"
    },
    {
      "inputs": [],
      "name": "TransferToZeroAddress",
      "type": "error"
    },
    {
      "inputs": [],
      "name": "URIQueryForNonexistentToken",
      "type": "error"
    },
    {
      "anonymous": false,
      "inputs": [
        {
          "indexed": true,
          "internalType": "address",
          "name": "owner",
          "type": "address"
        },
        {
          "indexed": true,
          "internalType": "address",
          "name": "approved",
          "type": "address"
        },
        {
          "indexed": true,
          "internalType": "uint256",
          "name": "tokenId",
          "type": "uint256"
        }
      ],
      "name": "Approval",
      "type": "event"
    },
    {
      "anonymous": false,
      "inputs": [
        {
          "indexed": true,
          "internalType": "address",
          "name": "owner",
          "type": "address"
        },
        {
          "indexed": true,
          "internalType": "address",
          "name": "operator",
          "type": "address"
        },
        {
          "indexed": false,
          "internalType": "bool",
          "name": "approved",
          "type": "bool"
        }
      ],
      "name": "ApprovalForAll",
      "type": "event"
    },
    {
      "anonymous": false,
      "inputs": [
        {
          "indexed": true,
          "internalType": "address",
          "name": "previousOwner",
          "type": "address"
        },
        {
          "indexed": true,
          "internalType": "address",
          "name": "newOwner",
          "type": "address"
        }
      ],
      "name": "OwnershipTransferred",
      "type": "event"
    },
    {
      "anonymous": false,
      "inputs": [
        {
          "indexed": true,
          "internalType": "address",
          "name": "from",
          "type": "address"
        },
        {
          "indexed": true,
          "internalType": "address",
          "name": "to",
          "type": "address"
        },
        {
          "indexed": true,
          "internalType": "uint256",
          "name": "tokenId",
          "type": "uint256"
        }
      ],
      "name": "Transfer",
      "type": "event"
    },
    {
      "inputs": [],
      "name": "FREE_ITEMS_COUNT",
      "outputs": [
        {
          "internalType": "uint256",
          "name": "",
          "type": "uint256"
        }
      ],
      "stateMutability": "view",
      "type": "function"
    },
    {
      "inputs": [],
      "name": "MINT_PRICE",
      "outputs": [
        {
          "internalType": "uint256",
          "name": "",
          "type": "uint256"
        }
      ],
      "stateMutability": "view",
      "type": "function"
    },
    {
      "inputs": [],
      "name": "TOTAL_SUPPLY",
      "outputs": [
        {
          "internalType": "uint256",
          "name": "",
          "type": "uint256"
        }
      ],
      "stateMutability": "view",
      "type": "function"
    },
    {
      "inputs": [
        {
          "internalType": "address",
          "name": "to",
          "type": "address"
        },
        {
          "internalType": "uint256",
          "name": "tokenId",
          "type": "uint256"
        }
      ],
      "name": "approve",
      "outputs": [],
      "stateMutability": "nonpayable",
      "type": "function"
    },
    {
      "inputs": [
        {
          "internalType": "address",
          "name": "owner",
          "type": "address"
        }
      ],
      "name": "balanceOf",
      "outputs": [
        {
          "internalType": "uint256",
          "name": "",
          "type": "uint256"
        }
      ],
      "stateMutability": "view",
      "type": "function"
    },
    {
      "inputs": [],
      "name": "baseTokenURI",
      "outputs": [
        {
          "internalType": "string",
          "name": "",
          "type": "string"
        }
      ],
      "stateMutability": "view",
      "type": "function"
    },
    {
      "inputs": [
        {
          "internalType": "uint256",
          "name": "quantity",
          "type": "uint256"
        }
      ],
      "name": "claimByOwner",
      "outputs": [],
      "stateMutability": "payable",
      "type": "function"
    },
    {
      "inputs": [
        {
          "internalType": "uint256",
          "name": "tokenId",
          "type": "uint256"
        }
      ],
      "name": "getApproved",
      "outputs": [
        {
          "internalType": "address",
          "name": "",
          "type": "address"
        }
      ],
      "stateMutability": "view",
      "type": "function"
    },
    {
      "inputs": [
        {
          "internalType": "address",
          "name": "owner",
          "type": "address"
        },
        {
          "internalType": "address",
          "name": "operator",
          "type": "address"
        }
      ],
      "name": "isApprovedForAll",
      "outputs": [
        {
          "internalType": "bool",
          "name": "",
          "type": "bool"
        }
      ],
      "stateMutability": "view",
      "type": "function"
    },
    {
      "inputs": [
        {
          "internalType": "uint256",
          "name": "quantity",
          "type": "uint256"
        }
      ],
      "name": "mintItem",
      "outputs": [],
      "stateMutability": "payable",
      "type": "function"
    },
    {
      "inputs": [],
      "name": "name",
      "outputs": [
        {
          "internalType": "string",
          "name": "",
          "type": "string"
        }
      ],
      "stateMutability": "view",
      "type": "function"
    },
    {
      "inputs": [],
      "name": "owner",
      "outputs": [
        {
          "internalType": "address",
          "name": "",
          "type": "address"
        }
      ],
      "stateMutability": "view",
      "type": "function"
    },
    {
      "inputs": [
        {
          "internalType": "uint256",
          "name": "tokenId",
          "type": "uint256"
        }
      ],
      "name": "ownerOf",
      "outputs": [
        {
          "internalType": "address",
          "name": "",
          "type": "address"
        }
      ],
      "stateMutability": "view",
      "type": "function"
    },
    {
      "inputs": [],
      "name": "renounceOwnership",
      "outputs": [],
      "stateMutability": "nonpayable",
      "type": "function"
    },
    {
      "inputs": [
        {
          "internalType": "address",
          "name": "from",
          "type": "address"
        },
        {
          "internalType": "address",
          "name": "to",
          "type": "address"
        },
        {
          "internalType": "uint256",
          "name": "tokenId",
          "type": "uint256"
        }
      ],
      "name": "safeTransferFrom",
      "outputs": [],
      "stateMutability": "nonpayable",
      "type": "function"
    },
    {
      "inputs": [
        {
          "internalType": "address",
          "name": "from",
          "type": "address"
        },
        {
          "internalType": "address",
          "name": "to",
          "type": "address"
        },
        {
          "internalType": "uint256",
          "name": "tokenId",
          "type": "uint256"
        },
        {
          "internalType": "bytes",
          "name": "_data",
          "type": "bytes"
        }
      ],
      "name": "safeTransferFrom",
      "outputs": [],
      "stateMutability": "nonpayable",
      "type": "function"
    },
    {
      "inputs": [
        {
          "internalType": "address",
          "name": "operator",
          "type": "address"
        },
        {
          "internalType": "bool",
          "name": "approved",
          "type": "bool"
        }
      ],
      "name": "setApprovalForAll",
      "outputs": [],
      "stateMutability": "nonpayable",
      "type": "function"
    },
    {
      "inputs": [
        {
          "internalType": "bytes4",
          "name": "interfaceId",
          "type": "bytes4"
        }
      ],
      "name": "supportsInterface",
      "outputs": [
        {
          "internalType": "bool",
          "name": "",
          "type": "bool"
        }
      ],
      "stateMutability": "view",
      "type": "function"
    },
    {
      "inputs": [],
      "name": "symbol",
      "outputs": [
        {
          "internalType": "string",
          "name": "",
          "type": "string"
        }
      ],
      "stateMutability": "view",
      "type": "function"
    },
    {
      "inputs": [
        {
          "internalType": "uint256",
          "name": "index",
          "type": "uint256"
        }
      ],
      "name": "tokenByIndex",
      "outputs": [
        {
          "internalType": "uint256",
          "name": "",
          "type": "uint256"
        }
      ],
      "stateMutability": "view",
      "type": "function"
    },
    {
      "inputs": [
        {
          "internalType": "address",
          "name": "owner",
          "type": "address"
        },
        {
          "internalType": "uint256",
          "name": "index",
          "type": "uint256"
        }
      ],
      "name": "tokenOfOwnerByIndex",
      "outputs": [
        {
          "internalType": "uint256",
          "name": "",
          "type": "uint256"
        }
      ],
      "stateMutability": "view",
      "type": "function"
    },
    {
      "inputs": [
        {
          "internalType": "uint256",
          "name": "tokenId",
          "type": "uint256"
        }
      ],
      "name": "tokenURI",
      "outputs": [
        {
          "internalType": "string",
          "name": "",
          "type": "string"
        }
      ],
      "stateMutability": "view",
      "type": "function"
    },
    {
      "inputs": [],
      "name": "totalSupply",
      "outputs": [
        {
          "internalType": "uint256",
          "name": "",
          "type": "uint256"
        }
      ],
      "stateMutability": "view",
      "type": "function"
    },
    {
      "inputs": [
        {
          "internalType": "address",
          "name": "from",
          "type": "address"
        },
        {
          "internalType": "address",
          "name": "to",
          "type": "address"
        },
        {
          "internalType": "uint256",
          "name": "tokenId",
          "type": "uint256"
        }
      ],
      "name": "transferFrom",
      "outputs": [],
      "stateMutability": "nonpayable",
      "type": "function"
    },
    {
      "inputs": [
        {
          "internalType": "address",
          "name": "newOwner",
          "type": "address"
        }
      ],
      "name": "transferOwnership",
      "outputs": [],
      "stateMutability": "nonpayable",
      "type": "function"
    },
    {
      "inputs": [],
      "name": "withdraw",
      "outputs": [],
      "stateMutability": "nonpayable",
      "type": "function"
    },
    {
      "inputs": [],
      "name": "withdrawLegacy",
      "outputs": [],
      "stateMutability": "nonpayable",
      "type": "function"
    },
    {
      "inputs": [
        {
          "internalType": "uint256",
          "name": "_amount",
          "type": "uint256"
        }
      ],
      "name": "withdrawLegacy",
      "outputs": [],
      "stateMutability": "nonpayable",
      "type": "function"
    }
  ],
  "bytecode": "0x60806040523480156200001157600080fd5b506040518060400160405280600d81526020017f58446f6f646c65734e46545633000000000000000000000000000000000000008152506040518060400160405280600481526020017f58444c3300000000000000000000000000000000000000000000000000000000815250816001908051906020019062000096929190620001d8565b508060029080519060200190620000af929190620001d8565b505050620000d2620000c66200010a60201b60201c565b6200011260201b60201c565b604051806060016040528060278152602001620039d6602791396008908051906020019062000103929190620001d8565b50620002ed565b600033905090565b6000600760009054906101000a900473ffffffffffffffffffffffffffffffffffffffff16905081600760006101000a81548173ffffffffffffffffffffffffffffffffffffffff021916908373ffffffffffffffffffffffffffffffffffffffff1602179055508173ffffffffffffffffffffffffffffffffffffffff168173ffffffffffffffffffffffffffffffffffffffff167f8be0079c531659141344cd1fd0a4f28419497f9722a3daafe3b4186f6b6457e060405160405180910390a35050565b828054620001e690620002b7565b90600052602060002090601f0160209004810192826200020a576000855562000256565b82601f106200022557805160ff191683800117855562000256565b8280016001018555821562000256579182015b828111156200025557825182559160200191906001019062000238565b5b50905062000265919062000269565b5090565b5b80821115620002845760008160009055506001016200026a565b5090565b7f4e487b7100000000000000000000000000000000000000000000000000000000600052602260045260246000fd5b60006002820490506001821680620002d057607f821691505b60208210811415620002e757620002e662000288565b5b50919050565b6136d980620002fd6000396000f3fe6080604052600436106101b75760003560e01c8063715018a6116100ec578063c002d23d1161008a578063d547cfb711610064578063d547cfb7146105eb578063e985e9c514610616578063eff896d214610653578063f2fde38b1461066f576101b7565b8063c002d23d14610558578063c87b56dd14610583578063cd87fcfe146105c0576101b7565b8063902d55a5116100c6578063902d55a5146104b057806395d89b41146104db578063a22cb46514610506578063b88d4fde1461052f576101b7565b8063715018a6146104455780637195e28f1461045c5780638da5cb5b14610485576101b7565b80632f745c591161015957806342842e0e1161013357806342842e0e146103655780634f6ccce71461038e5780636352211e146103cb57806370a0823114610408576101b7565b80632f745c59146102fa5780633ccfd60b146103375780633d2d5eb31461034e576101b7565b8063095ea7b311610195578063095ea7b31461026157806317fb85941461028a57806318160ddd146102a657806323b872dd146102d1576101b7565b806301ffc9a7146101bc57806306fdde03146101f9578063081812fc14610224575b600080fd5b3480156101c857600080fd5b506101e360048036038101906101de9190612b4a565b610698565b6040516101f09190612b92565b60405180910390f35b34801561020557600080fd5b5061020e6107e2565b60405161021b9190612c46565b60405180910390f35b34801561023057600080fd5b5061024b60048036038101906102469190612c9e565b610874565b6040516102589190612d0c565b60405180910390f35b34801561026d57600080fd5b5061028860048036038101906102839190612d53565b6108f0565b005b6102a4600480360381019061029f9190612c9e565b6109fb565b005b3480156102b257600080fd5b506102bb610b21565b6040516102c89190612da2565b60405180910390f35b3480156102dd57600080fd5b506102f860048036038101906102f39190612dbd565b610b76565b005b34801561030657600080fd5b50610321600480360381019061031c9190612d53565b610b86565b60405161032e9190612da2565b60405180910390f35b34801561034357600080fd5b5061034c610d8d565b005b34801561035a57600080fd5b50610363610e56565b005b34801561037157600080fd5b5061038c60048036038101906103879190612dbd565b610f28565b005b34801561039a57600080fd5b506103b560048036038101906103b09190612c9e565b610f48565b6040516103c29190612da2565b60405180910390f35b3480156103d757600080fd5b506103f260048036038101906103ed9190612c9e565b6110b9565b6040516103ff9190612d0c565b60405180910390f35b34801561041457600080fd5b5061042f600480360381019061042a9190612e10565b6110cf565b60405161043c9190612da2565b60405180910390f35b34801561045157600080fd5b5061045a61119f565b005b34801561046857600080fd5b50610483600480360381019061047e9190612c9e565b611227565b005b34801561049157600080fd5b5061049a6112fa565b6040516104a79190612d0c565b60405180910390f35b3480156104bc57600080fd5b506104c5611324565b6040516104d29190612da2565b60405180910390f35b3480156104e757600080fd5b506104f061132a565b6040516104fd9190612c46565b60405180910390f35b34801561051257600080fd5b5061052d60048036038101906105289190612e69565b6113bc565b005b34801561053b57600080fd5b5061055660048036038101906105519190612fde565b611534565b005b34801561056457600080fd5b5061056d611587565b60405161057a9190612da2565b60405180910390f35b34801561058f57600080fd5b506105aa60048036038101906105a59190612c9e565b611592565b6040516105b79190612c46565b60405180910390f35b3480156105cc57600080fd5b506105d5611618565b6040516105e29190612da2565b60405180910390f35b3480156105f757600080fd5b5061060061161d565b60405161060d9190612c46565b60405180910390f35b34801561062257600080fd5b5061063d60048036038101906106389190613061565b6116ab565b60405161064a9190612b92565b60405180910390f35b61066d60048036038101906106689190612c9e565b61173f565b005b34801561067b57600080fd5b5061069660048036038101906106919190612e10565b611825565b005b60007f80ac58cd000000000000000000000000000000000000000000000000000000007bffffffffffffffffffffffffffffffffffffffffffffffffffffffff1916827bffffffffffffffffffffffffffffffffffffffffffffffffffffffff1916148061076357507f5b5e139f000000000000000000000000000000000000000000000000000000007bffffffffffffffffffffffffffffffffffffffffffffffffffffffff1916827bffffffffffffffffffffffffffffffffffffffffffffffffffffffff1916145b806107cb57507f780e9d63000000000000000000000000000000000000000000000000000000007bffffffffffffffffffffffffffffffffffffffffffffffffffffffff1916827bffffffffffffffffffffffffffffffffffffffffffffffffffffffff1916145b806107db57506107da8261191d565b5b9050919050565b6060600180546107f1906130d0565b80601f016020809104026020016040519081016040528092919081815260200182805461081d906130d0565b801561086a5780601f1061083f5761010080835404028352916020019161086a565b820191906000526020600020905b81548152906001019060200180831161084d57829003601f168201915b5050505050905090565b600061087f82611987565b6108b5576040517fcf4700e400000000000000000000000000000000000000000000000000000000815260040160405180910390fd5b6005600083815260200190815260200160002060009054906101000a900473ffffffffffffffffffffffffffffffffffffffff169050919050565b60006108fb826110b9565b90508073ffffffffffffffffffffffffffffffffffffffff168373ffffffffffffffffffffffffffffffffffffffff161415610963576040517f943f7b8c00000000000000000000000000000000000000000000000000000000815260040160405180910390fd5b8073ffffffffffffffffffffffffffffffffffffffff166109826119ef565b73ffffffffffffffffffffffffffffffffffffffff16141580156109b457506109b2816109ad6119ef565b6116ab565b155b156109eb576040517fcfb3b94200000000000000000000000000000000000000000000000000000000815260040160405180910390fd5b6109f68383836119f7565b505050565b6000610a05610b21565b9050600082118015610a185750600a8211155b610a57576040517f08c379a0000000000000000000000000000000000000000000000000000000008152600401610a4e9061314e565b60405180910390fd5b6127108282610a66919061319d565b1115610aa7576040517f08c379a0000000000000000000000000000000000000000000000000000000008152600401610a9e9061323f565b60405180910390fd5b60028282610ab5919061319d565b111580610ad4575081662386f26fc10000610ad0919061325f565b3410155b610b13576040517f08c379a0000000000000000000000000000000000000000000000000000000008152600401610b0a90613305565b60405180910390fd5b610b1d3383611aa9565b5050565b60008060109054906101000a90046fffffffffffffffffffffffffffffffff1660008054906101000a90046fffffffffffffffffffffffffffffffff16036fffffffffffffffffffffffffffffffff16905090565b610b81838383611ac7565b505050565b6000610b91836110cf565b8210610bc9576040517f0ddac30e00000000000000000000000000000000000000000000000000000000815260040160405180910390fd5b60008060009054906101000a90046fffffffffffffffffffffffffffffffff166fffffffffffffffffffffffffffffffff16905060008060005b83811015610d81576000600360008381526020019081526020016000206040518060600160405290816000820160009054906101000a900473ffffffffffffffffffffffffffffffffffffffff1673ffffffffffffffffffffffffffffffffffffffff1673ffffffffffffffffffffffffffffffffffffffff1681526020016000820160149054906101000a900467ffffffffffffffff1667ffffffffffffffff1667ffffffffffffffff16815260200160008201601c9054906101000a900460ff1615151515815250509050806040015115610ce05750610d74565b600073ffffffffffffffffffffffffffffffffffffffff16816000015173ffffffffffffffffffffffffffffffffffffffff1614610d2057806000015192505b8773ffffffffffffffffffffffffffffffffffffffff168373ffffffffffffffffffffffffffffffffffffffff161415610d725786841415610d69578195505050505050610d87565b83806001019450505b505b8080600101915050610c03565b50600080fd5b92915050565b610d956119ef565b73ffffffffffffffffffffffffffffffffffffffff16610db36112fa565b73ffffffffffffffffffffffffffffffffffffffff1614610e09576040517f08c379a0000000000000000000000000000000000000000000000000000000008152600401610e0090613371565b60405180910390fd5b6000610e136112fa565b90508073ffffffffffffffffffffffffffffffffffffffff166108fc479081150290604051600060405180830381858888f19350505050610e5357600080fd5b50565b610e5e6119ef565b73ffffffffffffffffffffffffffffffffffffffff16610e7c6112fa565b73ffffffffffffffffffffffffffffffffffffffff1614610ed2576040517f08c379a0000000000000000000000000000000000000000000000000000000008152600401610ec990613371565b60405180910390fd5b6000610edc6112fa565b90508073ffffffffffffffffffffffffffffffffffffffff166108fc479081150290604051600060405180830381858888f19350505050158015610f24573d6000803e3d6000fd5b5050565b610f4383838360405180602001604052806000815250611534565b505050565b60008060008054906101000a90046fffffffffffffffffffffffffffffffff166fffffffffffffffffffffffffffffffff1690506000805b82811015611081576000600360008381526020019081526020016000206040518060600160405290816000820160009054906101000a900473ffffffffffffffffffffffffffffffffffffffff1673ffffffffffffffffffffffffffffffffffffffff1673ffffffffffffffffffffffffffffffffffffffff1681526020016000820160149054906101000a900467ffffffffffffffff1667ffffffffffffffff1667ffffffffffffffff16815260200160008201601c9054906101000a900460ff16151515158152505090508060400151611073578583141561106a57819450505050506110b4565b82806001019350505b508080600101915050610f80565b506040517fa723001c00000000000000000000000000000000000000000000000000000000815260040160405180910390fd5b919050565b60006110c482611fe4565b600001519050919050565b60008073ffffffffffffffffffffffffffffffffffffffff168273ffffffffffffffffffffffffffffffffffffffff161415611137576040517f8f4eb60400000000000000000000000000000000000000000000000000000000815260040160405180910390fd5b600460008373ffffffffffffffffffffffffffffffffffffffff1673ffffffffffffffffffffffffffffffffffffffff16815260200190815260200160002060000160009054906101000a900467ffffffffffffffff1667ffffffffffffffff169050919050565b6111a76119ef565b73ffffffffffffffffffffffffffffffffffffffff166111c56112fa565b73ffffffffffffffffffffffffffffffffffffffff161461121b576040517f08c379a000000000000000000000000000000000000000000000000000000000815260040161121290613371565b60405180910390fd5b611225600061228c565b565b61122f6119ef565b73ffffffffffffffffffffffffffffffffffffffff1661124d6112fa565b73ffffffffffffffffffffffffffffffffffffffff16146112a3576040517f08c379a000000000000000000000000000000000000000000000000000000000815260040161129a90613371565b60405180910390fd5b60006112ad6112fa565b90508073ffffffffffffffffffffffffffffffffffffffff166108fc839081150290604051600060405180830381858888f193505050501580156112f5573d6000803e3d6000fd5b505050565b6000600760009054906101000a900473ffffffffffffffffffffffffffffffffffffffff16905090565b61271081565b606060028054611339906130d0565b80601f0160208091040260200160405190810160405280929190818152602001828054611365906130d0565b80156113b25780601f10611387576101008083540402835291602001916113b2565b820191906000526020600020905b81548152906001019060200180831161139557829003601f168201915b5050505050905090565b6113c46119ef565b73ffffffffffffffffffffffffffffffffffffffff168273ffffffffffffffffffffffffffffffffffffffff161415611429576040517fb06307db00000000000000000000000000000000000000000000000000000000815260040160405180910390fd5b80600660006114366119ef565b73ffffffffffffffffffffffffffffffffffffffff1673ffffffffffffffffffffffffffffffffffffffff16815260200190815260200160002060008473ffffffffffffffffffffffffffffffffffffffff1673ffffffffffffffffffffffffffffffffffffffff16815260200190815260200160002060006101000a81548160ff0219169083151502179055508173ffffffffffffffffffffffffffffffffffffffff166114e36119ef565b73ffffffffffffffffffffffffffffffffffffffff167f17307eab39ab6107e8899845ad3d59bd9653f200f220920489ca2b5937696c31836040516115289190612b92565b60405180910390a35050565b61153f848484611ac7565b61154b84848484612352565b611581576040517fd1a57ed600000000000000000000000000000000000000000000000000000000815260040160405180910390fd5b50505050565b662386f26fc1000081565b606061159d82611987565b6115d3576040517fa14c4b5000000000000000000000000000000000000000000000000000000000815260040160405180910390fd5b6115db6124d1565b6115f1612710846115ec919061319d565b612563565b6040516020016116029291906133cd565b6040516020818303038152906040529050919050565b600281565b6008805461162a906130d0565b80601f0160208091040260200160405190810160405280929190818152602001828054611656906130d0565b80156116a35780601f10611678576101008083540402835291602001916116a3565b820191906000526020600020905b81548152906001019060200180831161168657829003601f168201915b505050505081565b6000600660008473ffffffffffffffffffffffffffffffffffffffff1673ffffffffffffffffffffffffffffffffffffffff16815260200190815260200160002060008373ffffffffffffffffffffffffffffffffffffffff1673ffffffffffffffffffffffffffffffffffffffff16815260200190815260200160002060009054906101000a900460ff16905092915050565b6117476119ef565b73ffffffffffffffffffffffffffffffffffffffff166117656112fa565b73ffffffffffffffffffffffffffffffffffffffff16146117bb576040517f08c379a00000000000000000000000000000000000000000000000000000000081526004016117b290613371565b60405180910390fd5b60006117c5610b21565b905061271082826117d6919061319d565b1115611817576040517f08c379a000000000000000000000000000000000000000000000000000000000815260040161180e9061323f565b60405180910390fd5b6118213383611aa9565b5050565b61182d6119ef565b73ffffffffffffffffffffffffffffffffffffffff1661184b6112fa565b73ffffffffffffffffffffffffffffffffffffffff16146118a1576040517f08c379a000000000000000000000000000000000000000000000000000000000815260040161189890613371565b60405180910390fd5b600073ffffffffffffffffffffffffffffffffffffffff168173ffffffffffffffffffffffffffffffffffffffff161415611911576040517f08c379a000000000000000000000000000000000000000000000000000000000815260040161190890613463565b60405180910390fd5b61191a8161228c565b50565b60007f01ffc9a7000000000000000000000000000000000000000000000000000000007bffffffffffffffffffffffffffffffffffffffffffffffffffffffff1916827bffffffffffffffffffffffffffffffffffffffffffffffffffffffff1916149050919050565b60008060009054906101000a90046fffffffffffffffffffffffffffffffff166fffffffffffffffffffffffffffffffff16821080156119e8575060036000838152602001908152602001600020600001601c9054906101000a900460ff16155b9050919050565b600033905090565b826005600084815260200190815260200160002060006101000a81548173ffffffffffffffffffffffffffffffffffffffff021916908373ffffffffffffffffffffffffffffffffffffffff160217905550818373ffffffffffffffffffffffffffffffffffffffff168273ffffffffffffffffffffffffffffffffffffffff167f8c5be1e5ebec7d5bd14f71427d1e84f3dd0314c0f7b2291e5b200ac8c7c3b92560405160405180910390a4505050565b611ac38282604051806020016040528060008152506126c4565b5050565b6000611ad282611fe4565b90506000816000015173ffffffffffffffffffffffffffffffffffffffff16611af96119ef565b73ffffffffffffffffffffffffffffffffffffffff161480611b2c5750611b2b8260000151611b266119ef565b6116ab565b5b80611b715750611b3a6119ef565b73ffffffffffffffffffffffffffffffffffffffff16611b5984610874565b73ffffffffffffffffffffffffffffffffffffffff16145b905080611baa576040517f59c896be00000000000000000000000000000000000000000000000000000000815260040160405180910390fd5b8473ffffffffffffffffffffffffffffffffffffffff16826000015173ffffffffffffffffffffffffffffffffffffffff1614611c13576040517fa114810000000000000000000000000000000000000000000000000000000000815260040160405180910390fd5b600073ffffffffffffffffffffffffffffffffffffffff168473ffffffffffffffffffffffffffffffffffffffff161415611c7a576040517fea553b3400000000000000000000000000000000000000000000000000000000815260040160405180910390fd5b611c8785858560016126d6565b611c9760008484600001516119f7565b6001600460008773ffffffffffffffffffffffffffffffffffffffff1673ffffffffffffffffffffffffffffffffffffffff16815260200190815260200160002060000160008282829054906101000a900467ffffffffffffffff160392506101000a81548167ffffffffffffffff021916908367ffffffffffffffff1602179055506001600460008673ffffffffffffffffffffffffffffffffffffffff1673ffffffffffffffffffffffffffffffffffffffff16815260200190815260200160002060000160008282829054906101000a900467ffffffffffffffff160192506101000a81548167ffffffffffffffff021916908367ffffffffffffffff160217905550836003600085815260200190815260200160002060000160006101000a81548173ffffffffffffffffffffffffffffffffffffffff021916908373ffffffffffffffffffffffffffffffffffffffff160217905550426003600085815260200190815260200160002060000160146101000a81548167ffffffffffffffff021916908367ffffffffffffffff1602179055506000600184019050600073ffffffffffffffffffffffffffffffffffffffff166003600083815260200190815260200160002060000160009054906101000a900473ffffffffffffffffffffffffffffffffffffffff1673ffffffffffffffffffffffffffffffffffffffff161415611f745760008054906101000a90046fffffffffffffffffffffffffffffffff166fffffffffffffffffffffffffffffffff16811015611f735782600001516003600083815260200190815260200160002060000160006101000a81548173ffffffffffffffffffffffffffffffffffffffff021916908373ffffffffffffffffffffffffffffffffffffffff16021790555082602001516003600083815260200190815260200160002060000160146101000a81548167ffffffffffffffff021916908367ffffffffffffffff1602179055505b5b50828473ffffffffffffffffffffffffffffffffffffffff168673ffffffffffffffffffffffffffffffffffffffff167fddf252ad1be2c89b69c2b068fc378daa952ba7f163c4a11628f55a4df523b3ef60405160405180910390a4611fdd85858560016126dc565b5050505050565b611fec612a9b565b600082905060008054906101000a90046fffffffffffffffffffffffffffffffff166fffffffffffffffffffffffffffffffff16811015612255576000600360008381526020019081526020016000206040518060600160405290816000820160009054906101000a900473ffffffffffffffffffffffffffffffffffffffff1673ffffffffffffffffffffffffffffffffffffffff1673ffffffffffffffffffffffffffffffffffffffff1681526020016000820160149054906101000a900467ffffffffffffffff1667ffffffffffffffff1667ffffffffffffffff16815260200160008201601c9054906101000a900460ff1615151515815250509050806040015161225357600073ffffffffffffffffffffffffffffffffffffffff16816000015173ffffffffffffffffffffffffffffffffffffffff1614612137578092505050612287565b5b60011561225257818060019003925050600360008381526020019081526020016000206040518060600160405290816000820160009054906101000a900473ffffffffffffffffffffffffffffffffffffffff1673ffffffffffffffffffffffffffffffffffffffff1673ffffffffffffffffffffffffffffffffffffffff1681526020016000820160149054906101000a900467ffffffffffffffff1667ffffffffffffffff1667ffffffffffffffff16815260200160008201601c9054906101000a900460ff1615151515815250509050600073ffffffffffffffffffffffffffffffffffffffff16816000015173ffffffffffffffffffffffffffffffffffffffff161461224d578092505050612287565b612138565b5b505b6040517fdf2d9b4200000000000000000000000000000000000000000000000000000000815260040160405180910390fd5b919050565b6000600760009054906101000a900473ffffffffffffffffffffffffffffffffffffffff16905081600760006101000a81548173ffffffffffffffffffffffffffffffffffffffff021916908373ffffffffffffffffffffffffffffffffffffffff1602179055508173ffffffffffffffffffffffffffffffffffffffff168173ffffffffffffffffffffffffffffffffffffffff167f8be0079c531659141344cd1fd0a4f28419497f9722a3daafe3b4186f6b6457e060405160405180910390a35050565b60006123738473ffffffffffffffffffffffffffffffffffffffff166126e2565b156124c4578373ffffffffffffffffffffffffffffffffffffffff1663150b7a0261239c6119ef565b8786866040518563ffffffff1660e01b81526004016123be94939291906134d8565b6020604051808303816000875af19250505080156123fa57506040513d601f19601f820116820180604052508101906123f79190613539565b60015b612474573d806000811461242a576040519150601f19603f3d011682016040523d82523d6000602084013e61242f565b606091505b5060008151141561246c576040517fd1a57ed600000000000000000000000000000000000000000000000000000000815260040160405180910390fd5b805181602001fd5b63150b7a0260e01b7bffffffffffffffffffffffffffffffffffffffffffffffffffffffff1916817bffffffffffffffffffffffffffffffffffffffffffffffffffffffff1916149150506124c9565b600190505b949350505050565b6060600880546124e0906130d0565b80601f016020809104026020016040519081016040528092919081815260200182805461250c906130d0565b80156125595780601f1061252e57610100808354040283529160200191612559565b820191906000526020600020905b81548152906001019060200180831161253c57829003601f168201915b5050505050905090565b606060008214156125ab576040518060400160405280600181526020017f300000000000000000000000000000000000000000000000000000000000000081525090506126bf565b600082905060005b600082146125dd5780806125c690613566565b915050600a826125d691906135de565b91506125b3565b60008167ffffffffffffffff8111156125f9576125f8612eb3565b5b6040519080825280601f01601f19166020018201604052801561262b5781602001600182028036833780820191505090505b5090505b600085146126b857600182612644919061360f565b9150600a856126539190613643565b603061265f919061319d565b60f81b81838151811061267557612674613674565b5b60200101907effffffffffffffffffffffffffffffffffffffffffffffffffffffffffffff1916908160001a905350600a856126b191906135de565b945061262f565b8093505050505b919050565b6126d18383836001612705565b505050565b50505050565b50505050565b6000808273ffffffffffffffffffffffffffffffffffffffff163b119050919050565b60008060009054906101000a90046fffffffffffffffffffffffffffffffff166fffffffffffffffffffffffffffffffff169050600073ffffffffffffffffffffffffffffffffffffffff168573ffffffffffffffffffffffffffffffffffffffff1614156127a0576040517f2e07630000000000000000000000000000000000000000000000000000000000815260040160405180910390fd5b60008414156127db576040517fb562e8dd00000000000000000000000000000000000000000000000000000000815260040160405180910390fd5b6127e860008683876126d6565b83600460008773ffffffffffffffffffffffffffffffffffffffff1673ffffffffffffffffffffffffffffffffffffffff16815260200190815260200160002060000160008282829054906101000a900467ffffffffffffffff160192506101000a81548167ffffffffffffffff021916908367ffffffffffffffff16021790555083600460008773ffffffffffffffffffffffffffffffffffffffff1673ffffffffffffffffffffffffffffffffffffffff16815260200190815260200160002060000160088282829054906101000a900467ffffffffffffffff160192506101000a81548167ffffffffffffffff021916908367ffffffffffffffff160217905550846003600083815260200190815260200160002060000160006101000a81548173ffffffffffffffffffffffffffffffffffffffff021916908373ffffffffffffffffffffffffffffffffffffffff160217905550426003600083815260200190815260200160002060000160146101000a81548167ffffffffffffffff021916908367ffffffffffffffff160217905550600081905060005b85811015612a4d57818773ffffffffffffffffffffffffffffffffffffffff16600073ffffffffffffffffffffffffffffffffffffffff167fddf252ad1be2c89b69c2b068fc378daa952ba7f163c4a11628f55a4df523b3ef60405160405180910390a4838015612a0157506129ff6000888488612352565b155b15612a38576040517fd1a57ed600000000000000000000000000000000000000000000000000000000815260040160405180910390fd5b81806001019250508080600101915050612986565b50806000806101000a8154816fffffffffffffffffffffffffffffffff02191690836fffffffffffffffffffffffffffffffff16021790555050612a9460008683876126dc565b5050505050565b6040518060600160405280600073ffffffffffffffffffffffffffffffffffffffff168152602001600067ffffffffffffffff1681526020016000151581525090565b6000604051905090565b600080fd5b600080fd5b60007fffffffff0000000000000000000000000000000000000000000000000000000082169050919050565b612b2781612af2565b8114612b3257600080fd5b50565b600081359050612b4481612b1e565b92915050565b600060208284031215612b6057612b5f612ae8565b5b6000612b6e84828501612b35565b91505092915050565b60008115159050919050565b612b8c81612b77565b82525050565b6000602082019050612ba76000830184612b83565b92915050565b600081519050919050565b600082825260208201905092915050565b60005b83811015612be7578082015181840152602081019050612bcc565b83811115612bf6576000848401525b50505050565b6000601f19601f8301169050919050565b6000612c1882612bad565b612c228185612bb8565b9350612c32818560208601612bc9565b612c3b81612bfc565b840191505092915050565b60006020820190508181036000830152612c608184612c0d565b905092915050565b6000819050919050565b612c7b81612c68565b8114612c8657600080fd5b50565b600081359050612c9881612c72565b92915050565b600060208284031215612cb457612cb3612ae8565b5b6000612cc284828501612c89565b91505092915050565b600073ffffffffffffffffffffffffffffffffffffffff82169050919050565b6000612cf682612ccb565b9050919050565b612d0681612ceb565b82525050565b6000602082019050612d216000830184612cfd565b92915050565b612d3081612ceb565b8114612d3b57600080fd5b50565b600081359050612d4d81612d27565b92915050565b60008060408385031215612d6a57612d69612ae8565b5b6000612d7885828601612d3e565b9250506020612d8985828601612c89565b9150509250929050565b612d9c81612c68565b82525050565b6000602082019050612db76000830184612d93565b92915050565b600080600060608486031215612dd657612dd5612ae8565b5b6000612de486828701612d3e565b9350506020612df586828701612d3e565b9250506040612e0686828701612c89565b9150509250925092565b600060208284031215612e2657612e25612ae8565b5b6000612e3484828501612d3e565b91505092915050565b612e4681612b77565b8114612e5157600080fd5b50565b600081359050612e6381612e3d565b92915050565b60008060408385031215612e8057612e7f612ae8565b5b6000612e8e85828601612d3e565b9250506020612e9f85828601612e54565b9150509250929050565b600080fd5b600080fd5b7f4e487b7100000000000000000000000000000000000000000000000000000000600052604160045260246000fd5b612eeb82612bfc565b810181811067ffffffffffffffff82111715612f0a57612f09612eb3565b5b80604052505050565b6000612f1d612ade565b9050612f298282612ee2565b919050565b600067ffffffffffffffff821115612f4957612f48612eb3565b5b612f5282612bfc565b9050602081019050919050565b82818337600083830152505050565b6000612f81612f7c84612f2e565b612f13565b905082815260208101848484011115612f9d57612f9c612eae565b5b612fa8848285612f5f565b509392505050565b600082601f830112612fc557612fc4612ea9565b5b8135612fd5848260208601612f6e565b91505092915050565b60008060008060808587031215612ff857612ff7612ae8565b5b600061300687828801612d3e565b945050602061301787828801612d3e565b935050604061302887828801612c89565b925050606085013567ffffffffffffffff81111561304957613048612aed565b5b61305587828801612fb0565b91505092959194509250565b6000806040838503121561307857613077612ae8565b5b600061308685828601612d3e565b925050602061309785828601612d3e565b9150509250929050565b7f4e487b7100000000000000000000000000000000000000000000000000000000600052602260045260246000fd5b600060028204905060018216806130e857607f821691505b602082108114156130fc576130fb6130a1565b5b50919050565b7f496e76616c6964207175616e746974792e000000000000000000000000000000600082015250565b6000613138601183612bb8565b915061314382613102565b602082019050919050565b600060208201905081810360008301526131678161312b565b9050919050565b7f4e487b7100000000000000000000000000000000000000000000000000000000600052601160045260246000fd5b60006131a882612c68565b91506131b383612c68565b9250827fffffffffffffffffffffffffffffffffffffffffffffffffffffffffffffffff038211156131e8576131e761316e565b5b828201905092915050565b7f45786365656473206d6178696d756d20737570706c7900000000000000000000600082015250565b6000613229601683612bb8565b9150613234826131f3565b602082019050919050565b600060208201905081810360008301526132588161321c565b9050919050565b600061326a82612c68565b915061327583612c68565b9250817fffffffffffffffffffffffffffffffffffffffffffffffffffffffffffffffff04831182151516156132ae576132ad61316e565b5b828202905092915050565b7f4e6f7420656e6f7567687420737570706c792e00000000000000000000000000600082015250565b60006132ef601383612bb8565b91506132fa826132b9565b602082019050919050565b6000602082019050818103600083015261331e816132e2565b9050919050565b7f4f776e61626c653a2063616c6c6572206973206e6f7420746865206f776e6572600082015250565b600061335b602083612bb8565b915061336682613325565b602082019050919050565b6000602082019050818103600083015261338a8161334e565b9050919050565b600081905092915050565b60006133a782612bad565b6133b18185613391565b93506133c1818560208601612bc9565b80840191505092915050565b60006133d9828561339c565b91506133e5828461339c565b91508190509392505050565b7f4f776e61626c653a206e6577206f776e657220697320746865207a65726f206160008201527f6464726573730000000000000000000000000000000000000000000000000000602082015250565b600061344d602683612bb8565b9150613458826133f1565b604082019050919050565b6000602082019050818103600083015261347c81613440565b9050919050565b600081519050919050565b600082825260208201905092915050565b60006134aa82613483565b6134b4818561348e565b93506134c4818560208601612bc9565b6134cd81612bfc565b840191505092915050565b60006080820190506134ed6000830187612cfd565b6134fa6020830186612cfd565b6135076040830185612d93565b8181036060830152613519818461349f565b905095945050505050565b60008151905061353381612b1e565b92915050565b60006020828403121561354f5761354e612ae8565b5b600061355d84828501613524565b91505092915050565b600061357182612c68565b91507fffffffffffffffffffffffffffffffffffffffffffffffffffffffffffffffff8214156135a4576135a361316e565b5b600182019050919050565b7f4e487b7100000000000000000000000000000000000000000000000000000000600052601260045260246000fd5b60006135e982612c68565b91506135f483612c68565b925082613604576136036135af565b5b828204905092915050565b600061361a82612c68565b915061362583612c68565b9250828210156136385761363761316e565b5b828203905092915050565b600061364e82612c68565b915061365983612c68565b925082613669576136686135af565b5b828206905092915050565b7f4e487b7100000000000000000000000000000000000000000000000000000000600052603260045260246000fdfea2646970667358221220cbf6c80f27cc31db8df9143bd77679ef97e93e444c165e7fc9ad8bb2f9a0a75264736f6c634300080c003368747470733a2f2f6170692e6d696e743078446f6f646c65732e78797a2f6d657461646174612f",
  "linkReferences": {},
  "deployedLinkReferences": {}
}