{
  "_format": "hh-sol-artifact-1",
  "contractName": "XDoodlesNFTV3",
  "sourceName": "contracts/XDoodlesNFTV3.sol",
  "abi": [
    {
      "inputs": [],
      "stateMutability": "nonpayable",
      "type": "constructor"
    },
    {
      "inputs": [],
      "name": "ApprovalCallerNotOwnerNorApproved",
      "type": "error"
    },
    {
      "inputs": [],
      "name": "ApprovalQueryForNonexistentToken",
      "type": "error"
    },
    {
      "inputs": [],
      "name": "ApprovalToCurrentOwner",
      "type": "error"
    },
    {
      "inputs": [],
      "name": "ApproveToCaller",
      "type": "error"
    },
    {
      "inputs": [],
      "name": "BalanceQueryForZeroAddress",
      "type": "error"
    },
    {
      "inputs": [],
      "name": "MintToZeroAddress",
      "type": "error"
    },
    {
      "inputs": [],
      "name": "MintZeroQuantity",
      "type": "error"
    },
    {
      "inputs": [],
      "name": "OwnerIndexOutOfBounds",
      "type": "error"
    },
    {
      "inputs": [],
      "name": "OwnerQueryForNonexistentToken",
      "type": "error"
    },
    {
      "inputs": [],
      "name": "TokenIndexOutOfBounds",
      "type": "error"
    },
    {
      "inputs": [],
      "name": "TransferCallerNotOwnerNorApproved",
      "type": "error"
    },
    {
      "inputs": [],
      "name": "TransferFromIncorrectOwner",
      "type": "error"
    },
    {
      "inputs": [],
      "name": "TransferToNonERC721ReceiverImplementer",
      "type": "error"
    },
    {
      "inputs": [],
      "name": "TransferToZeroAddress",
      "type": "error"
    },
    {
      "inputs": [],
      "name": "URIQueryForNonexistentToken",
      "type": "error"
    },
    {
      "anonymous": false,
      "inputs": [
        {
          "indexed": true,
          "internalType": "address",
          "name": "owner",
          "type": "address"
        },
        {
          "indexed": true,
          "internalType": "address",
          "name": "approved",
          "type": "address"
        },
        {
          "indexed": true,
          "internalType": "uint256",
          "name": "tokenId",
          "type": "uint256"
        }
      ],
      "name": "Approval",
      "type": "event"
    },
    {
      "anonymous": false,
      "inputs": [
        {
          "indexed": true,
          "internalType": "address",
          "name": "owner",
          "type": "address"
        },
        {
          "indexed": true,
          "internalType": "address",
          "name": "operator",
          "type": "address"
        },
        {
          "indexed": false,
          "internalType": "bool",
          "name": "approved",
          "type": "bool"
        }
      ],
      "name": "ApprovalForAll",
      "type": "event"
    },
    {
      "anonymous": false,
      "inputs": [
        {
          "indexed": true,
          "internalType": "address",
          "name": "previousOwner",
          "type": "address"
        },
        {
          "indexed": true,
          "internalType": "address",
          "name": "newOwner",
          "type": "address"
        }
      ],
      "name": "OwnershipTransferred",
      "type": "event"
    },
    {
      "anonymous": false,
      "inputs": [
        {
          "indexed": true,
          "internalType": "address",
          "name": "from",
          "type": "address"
        },
        {
          "indexed": true,
          "internalType": "address",
          "name": "to",
          "type": "address"
        },
        {
          "indexed": true,
          "internalType": "uint256",
          "name": "tokenId",
          "type": "uint256"
        }
      ],
      "name": "Transfer",
      "type": "event"
    },
    {
      "inputs": [],
      "name": "FREE_ITEMS_COUNT",
      "outputs": [
        {
          "internalType": "uint256",
          "name": "",
          "type": "uint256"
        }
      ],
      "stateMutability": "view",
      "type": "function"
    },
    {
      "inputs": [],
      "name": "MINT_PRICE",
      "outputs": [
        {
          "internalType": "uint256",
          "name": "",
          "type": "uint256"
        }
      ],
      "stateMutability": "view",
      "type": "function"
    },
    {
      "inputs": [],
      "name": "TOTAL_SUPPLY",
      "outputs": [
        {
          "internalType": "uint256",
          "name": "",
          "type": "uint256"
        }
      ],
      "stateMutability": "view",
      "type": "function"
    },
    {
      "inputs": [
        {
          "internalType": "address",
          "name": "to",
          "type": "address"
        },
        {
          "internalType": "uint256",
          "name": "tokenId",
          "type": "uint256"
        }
      ],
      "name": "approve",
      "outputs": [],
      "stateMutability": "nonpayable",
      "type": "function"
    },
    {
      "inputs": [
        {
          "internalType": "address",
          "name": "owner",
          "type": "address"
        }
      ],
      "name": "balanceOf",
      "outputs": [
        {
          "internalType": "uint256",
          "name": "",
          "type": "uint256"
        }
      ],
      "stateMutability": "view",
      "type": "function"
    },
    {
      "inputs": [],
      "name": "baseTokenURI",
      "outputs": [
        {
          "internalType": "string",
          "name": "",
          "type": "string"
        }
      ],
      "stateMutability": "view",
      "type": "function"
    },
    {
      "inputs": [
        {
          "internalType": "uint256",
          "name": "quantity",
          "type": "uint256"
        }
      ],
      "name": "claimByOwner",
      "outputs": [],
      "stateMutability": "payable",
      "type": "function"
    },
    {
      "inputs": [
        {
          "internalType": "uint256",
          "name": "tokenId",
          "type": "uint256"
        }
      ],
      "name": "getApproved",
      "outputs": [
        {
          "internalType": "address",
          "name": "",
          "type": "address"
        }
      ],
      "stateMutability": "view",
      "type": "function"
    },
    {
      "inputs": [
        {
          "internalType": "address",
          "name": "owner",
          "type": "address"
        },
        {
          "internalType": "address",
          "name": "operator",
          "type": "address"
        }
      ],
      "name": "isApprovedForAll",
      "outputs": [
        {
          "internalType": "bool",
          "name": "",
          "type": "bool"
        }
      ],
      "stateMutability": "view",
      "type": "function"
    },
    {
      "inputs": [
        {
          "internalType": "uint256",
          "name": "quantity",
          "type": "uint256"
        }
      ],
      "name": "mintItem",
      "outputs": [],
      "stateMutability": "payable",
      "type": "function"
    },
    {
      "inputs": [],
      "name": "name",
      "outputs": [
        {
          "internalType": "string",
          "name": "",
          "type": "string"
        }
      ],
      "stateMutability": "view",
      "type": "function"
    },
    {
      "inputs": [],
      "name": "owner",
      "outputs": [
        {
          "internalType": "address",
          "name": "",
          "type": "address"
        }
      ],
      "stateMutability": "view",
      "type": "function"
    },
    {
      "inputs": [
        {
          "internalType": "uint256",
          "name": "tokenId",
          "type": "uint256"
        }
      ],
      "name": "ownerOf",
      "outputs": [
        {
          "internalType": "address",
          "name": "",
          "type": "address"
        }
      ],
      "stateMutability": "view",
      "type": "function"
    },
    {
      "inputs": [],
      "name": "renounceOwnership",
      "outputs": [],
      "stateMutability": "nonpayable",
      "type": "function"
    },
    {
      "inputs": [
        {
          "internalType": "address",
          "name": "from",
          "type": "address"
        },
        {
          "internalType": "address",
          "name": "to",
          "type": "address"
        },
        {
          "internalType": "uint256",
          "name": "tokenId",
          "type": "uint256"
        }
      ],
      "name": "safeTransferFrom",
      "outputs": [],
      "stateMutability": "nonpayable",
      "type": "function"
    },
    {
      "inputs": [
        {
          "internalType": "address",
          "name": "from",
          "type": "address"
        },
        {
          "internalType": "address",
          "name": "to",
          "type": "address"
        },
        {
          "internalType": "uint256",
          "name": "tokenId",
          "type": "uint256"
        },
        {
          "internalType": "bytes",
          "name": "_data",
          "type": "bytes"
        }
      ],
      "name": "safeTransferFrom",
      "outputs": [],
      "stateMutability": "nonpayable",
      "type": "function"
    },
    {
      "inputs": [
        {
          "internalType": "address",
          "name": "operator",
          "type": "address"
        },
        {
          "internalType": "bool",
          "name": "approved",
          "type": "bool"
        }
      ],
      "name": "setApprovalForAll",
      "outputs": [],
      "stateMutability": "nonpayable",
      "type": "function"
    },
    {
      "inputs": [
        {
          "internalType": "bytes4",
          "name": "interfaceId",
          "type": "bytes4"
        }
      ],
      "name": "supportsInterface",
      "outputs": [
        {
          "internalType": "bool",
          "name": "",
          "type": "bool"
        }
      ],
      "stateMutability": "view",
      "type": "function"
    },
    {
      "inputs": [],
      "name": "symbol",
      "outputs": [
        {
          "internalType": "string",
          "name": "",
          "type": "string"
        }
      ],
      "stateMutability": "view",
      "type": "function"
    },
    {
      "inputs": [
        {
          "internalType": "uint256",
          "name": "index",
          "type": "uint256"
        }
      ],
      "name": "tokenByIndex",
      "outputs": [
        {
          "internalType": "uint256",
          "name": "",
          "type": "uint256"
        }
      ],
      "stateMutability": "view",
      "type": "function"
    },
    {
      "inputs": [
        {
          "internalType": "address",
          "name": "owner",
          "type": "address"
        },
        {
          "internalType": "uint256",
          "name": "index",
          "type": "uint256"
        }
      ],
      "name": "tokenOfOwnerByIndex",
      "outputs": [
        {
          "internalType": "uint256",
          "name": "",
          "type": "uint256"
        }
      ],
      "stateMutability": "view",
      "type": "function"
    },
    {
      "inputs": [
        {
          "internalType": "uint256",
          "name": "tokenId",
          "type": "uint256"
        }
      ],
      "name": "tokenURI",
      "outputs": [
        {
          "internalType": "string",
          "name": "",
          "type": "string"
        }
      ],
      "stateMutability": "view",
      "type": "function"
    },
    {
      "inputs": [],
      "name": "totalSupply",
      "outputs": [
        {
          "internalType": "uint256",
          "name": "",
          "type": "uint256"
        }
      ],
      "stateMutability": "view",
      "type": "function"
    },
    {
      "inputs": [
        {
          "internalType": "address",
          "name": "from",
          "type": "address"
        },
        {
          "internalType": "address",
          "name": "to",
          "type": "address"
        },
        {
          "internalType": "uint256",
          "name": "tokenId",
          "type": "uint256"
        }
      ],
      "name": "transferFrom",
      "outputs": [],
      "stateMutability": "nonpayable",
      "type": "function"
    },
    {
      "inputs": [
        {
          "internalType": "address",
          "name": "newOwner",
          "type": "address"
        }
      ],
      "name": "transferOwnership",
      "outputs": [],
      "stateMutability": "nonpayable",
      "type": "function"
    },
    {
      "inputs": [],
      "name": "withdraw",
      "outputs": [],
      "stateMutability": "nonpayable",
      "type": "function"
    },
    {
      "inputs": [],
      "name": "withdrawLegacy",
      "outputs": [],
      "stateMutability": "nonpayable",
      "type": "function"
    },
    {
      "inputs": [
        {
          "internalType": "uint256",
          "name": "_amount",
          "type": "uint256"
        }
      ],
      "name": "withdrawLegacy",
      "outputs": [],
      "stateMutability": "nonpayable",
      "type": "function"
    }
  ],
  "bytecode": "0x60806040523480156200001157600080fd5b506040518060400160405280600d81526020017f58446f6f646c65734e46545633000000000000000000000000000000000000008152506040518060400160405280600481526020017f58444c3300000000000000000000000000000000000000000000000000000000815250816001908051906020019062000096929190620001d8565b508060029080519060200190620000af929190620001d8565b505050620000d2620000c66200010a60201b60201c565b6200011260201b60201c565b604051806060016040528060278152602001620039d8602791396008908051906020019062000103929190620001d8565b50620002ed565b600033905090565b6000600760009054906101000a900473ffffffffffffffffffffffffffffffffffffffff16905081600760006101000a81548173ffffffffffffffffffffffffffffffffffffffff021916908373ffffffffffffffffffffffffffffffffffffffff1602179055508173ffffffffffffffffffffffffffffffffffffffff168173ffffffffffffffffffffffffffffffffffffffff167f8be0079c531659141344cd1fd0a4f28419497f9722a3daafe3b4186f6b6457e060405160405180910390a35050565b828054620001e690620002b7565b90600052602060002090601f0160209004810192826200020a576000855562000256565b82601f106200022557805160ff191683800117855562000256565b8280016001018555821562000256579182015b828111156200025557825182559160200191906001019062000238565b5b50905062000265919062000269565b5090565b5b80821115620002845760008160009055506001016200026a565b5090565b7f4e487b7100000000000000000000000000000000000000000000000000000000600052602260045260246000fd5b60006002820490506001821680620002d057607f821691505b60208210811415620002e757620002e662000288565b5b50919050565b6136db80620002fd6000396000f3fe6080604052600436106101b75760003560e01c8063715018a6116100ec578063c002d23d1161008a578063d547cfb711610064578063d547cfb7146105eb578063e985e9c514610616578063eff896d214610653578063f2fde38b1461066f576101b7565b8063c002d23d14610558578063c87b56dd14610583578063cd87fcfe146105c0576101b7565b8063902d55a5116100c6578063902d55a5146104b057806395d89b41146104db578063a22cb46514610506578063b88d4fde1461052f576101b7565b8063715018a6146104455780637195e28f1461045c5780638da5cb5b14610485576101b7565b80632f745c591161015957806342842e0e1161013357806342842e0e146103655780634f6ccce71461038e5780636352211e146103cb57806370a0823114610408576101b7565b80632f745c59146102fa5780633ccfd60b146103375780633d2d5eb31461034e576101b7565b8063095ea7b311610195578063095ea7b31461026157806317fb85941461028a57806318160ddd146102a657806323b872dd146102d1576101b7565b806301ffc9a7146101bc57806306fdde03146101f9578063081812fc14610224575b600080fd5b3480156101c857600080fd5b506101e360048036038101906101de9190612b4c565b610698565b6040516101f09190612b94565b60405180910390f35b34801561020557600080fd5b5061020e6107e2565b60405161021b9190612c48565b60405180910390f35b34801561023057600080fd5b5061024b60048036038101906102469190612ca0565b610874565b6040516102589190612d0e565b60405180910390f35b34801561026d57600080fd5b5061028860048036038101906102839190612d55565b6108f0565b005b6102a4600480360381019061029f9190612ca0565b6109fb565b005b3480156102b257600080fd5b506102bb610b22565b6040516102c89190612da4565b60405180910390f35b3480156102dd57600080fd5b506102f860048036038101906102f39190612dbf565b610b77565b005b34801561030657600080fd5b50610321600480360381019061031c9190612d55565b610b87565b60405161032e9190612da4565b60405180910390f35b34801561034357600080fd5b5061034c610d8e565b005b34801561035a57600080fd5b50610363610e57565b005b34801561037157600080fd5b5061038c60048036038101906103879190612dbf565b610f29565b005b34801561039a57600080fd5b506103b560048036038101906103b09190612ca0565b610f49565b6040516103c29190612da4565b60405180910390f35b3480156103d757600080fd5b506103f260048036038101906103ed9190612ca0565b6110ba565b6040516103ff9190612d0e565b60405180910390f35b34801561041457600080fd5b5061042f600480360381019061042a9190612e12565b6110d0565b60405161043c9190612da4565b60405180910390f35b34801561045157600080fd5b5061045a6111a0565b005b34801561046857600080fd5b50610483600480360381019061047e9190612ca0565b611228565b005b34801561049157600080fd5b5061049a6112fb565b6040516104a79190612d0e565b60405180910390f35b3480156104bc57600080fd5b506104c5611325565b6040516104d29190612da4565b60405180910390f35b3480156104e757600080fd5b506104f061132b565b6040516104fd9190612c48565b60405180910390f35b34801561051257600080fd5b5061052d60048036038101906105289190612e6b565b6113bd565b005b34801561053b57600080fd5b5061055660048036038101906105519190612fe0565b611535565b005b34801561056457600080fd5b5061056d611588565b60405161057a9190612da4565b60405180910390f35b34801561058f57600080fd5b506105aa60048036038101906105a59190612ca0565b611593565b6040516105b79190612c48565b60405180910390f35b3480156105cc57600080fd5b506105d5611619565b6040516105e29190612da4565b60405180910390f35b3480156105f757600080fd5b5061060061161f565b60405161060d9190612c48565b60405180910390f35b34801561062257600080fd5b5061063d60048036038101906106389190613063565b6116ad565b60405161064a9190612b94565b60405180910390f35b61066d60048036038101906106689190612ca0565b611741565b005b34801561067b57600080fd5b5061069660048036038101906106919190612e12565b611827565b005b60007f80ac58cd000000000000000000000000000000000000000000000000000000007bffffffffffffffffffffffffffffffffffffffffffffffffffffffff1916827bffffffffffffffffffffffffffffffffffffffffffffffffffffffff1916148061076357507f5b5e139f000000000000000000000000000000000000000000000000000000007bffffffffffffffffffffffffffffffffffffffffffffffffffffffff1916827bffffffffffffffffffffffffffffffffffffffffffffffffffffffff1916145b806107cb57507f780e9d63000000000000000000000000000000000000000000000000000000007bffffffffffffffffffffffffffffffffffffffffffffffffffffffff1916827bffffffffffffffffffffffffffffffffffffffffffffffffffffffff1916145b806107db57506107da8261191f565b5b9050919050565b6060600180546107f1906130d2565b80601f016020809104026020016040519081016040528092919081815260200182805461081d906130d2565b801561086a5780601f1061083f5761010080835404028352916020019161086a565b820191906000526020600020905b81548152906001019060200180831161084d57829003601f168201915b5050505050905090565b600061087f82611989565b6108b5576040517fcf4700e400000000000000000000000000000000000000000000000000000000815260040160405180910390fd5b6005600083815260200190815260200160002060009054906101000a900473ffffffffffffffffffffffffffffffffffffffff169050919050565b60006108fb826110ba565b90508073ffffffffffffffffffffffffffffffffffffffff168373ffffffffffffffffffffffffffffffffffffffff161415610963576040517f943f7b8c00000000000000000000000000000000000000000000000000000000815260040160405180910390fd5b8073ffffffffffffffffffffffffffffffffffffffff166109826119f1565b73ffffffffffffffffffffffffffffffffffffffff16141580156109b457506109b2816109ad6119f1565b6116ad565b155b156109eb576040517fcfb3b94200000000000000000000000000000000000000000000000000000000815260040160405180910390fd5b6109f68383836119f9565b505050565b6000610a05610b22565b9050600082118015610a185750600a8211155b610a57576040517f08c379a0000000000000000000000000000000000000000000000000000000008152600401610a4e90613150565b60405180910390fd5b6127108282610a66919061319f565b1115610aa7576040517f08c379a0000000000000000000000000000000000000000000000000000000008152600401610a9e90613241565b60405180910390fd5b6103e88282610ab6919061319f565b111580610ad5575081662386f26fc10000610ad19190613261565b3410155b610b14576040517f08c379a0000000000000000000000000000000000000000000000000000000008152600401610b0b90613307565b60405180910390fd5b610b1e3383611aab565b5050565b60008060109054906101000a90046fffffffffffffffffffffffffffffffff1660008054906101000a90046fffffffffffffffffffffffffffffffff16036fffffffffffffffffffffffffffffffff16905090565b610b82838383611ac9565b505050565b6000610b92836110d0565b8210610bca576040517f0ddac30e00000000000000000000000000000000000000000000000000000000815260040160405180910390fd5b60008060009054906101000a90046fffffffffffffffffffffffffffffffff166fffffffffffffffffffffffffffffffff16905060008060005b83811015610d82576000600360008381526020019081526020016000206040518060600160405290816000820160009054906101000a900473ffffffffffffffffffffffffffffffffffffffff1673ffffffffffffffffffffffffffffffffffffffff1673ffffffffffffffffffffffffffffffffffffffff1681526020016000820160149054906101000a900467ffffffffffffffff1667ffffffffffffffff1667ffffffffffffffff16815260200160008201601c9054906101000a900460ff1615151515815250509050806040015115610ce15750610d75565b600073ffffffffffffffffffffffffffffffffffffffff16816000015173ffffffffffffffffffffffffffffffffffffffff1614610d2157806000015192505b8773ffffffffffffffffffffffffffffffffffffffff168373ffffffffffffffffffffffffffffffffffffffff161415610d735786841415610d6a578195505050505050610d88565b83806001019450505b505b8080600101915050610c04565b50600080fd5b92915050565b610d966119f1565b73ffffffffffffffffffffffffffffffffffffffff16610db46112fb565b73ffffffffffffffffffffffffffffffffffffffff1614610e0a576040517f08c379a0000000000000000000000000000000000000000000000000000000008152600401610e0190613373565b60405180910390fd5b6000610e146112fb565b90508073ffffffffffffffffffffffffffffffffffffffff166108fc479081150290604051600060405180830381858888f19350505050610e5457600080fd5b50565b610e5f6119f1565b73ffffffffffffffffffffffffffffffffffffffff16610e7d6112fb565b73ffffffffffffffffffffffffffffffffffffffff1614610ed3576040517f08c379a0000000000000000000000000000000000000000000000000000000008152600401610eca90613373565b60405180910390fd5b6000610edd6112fb565b90508073ffffffffffffffffffffffffffffffffffffffff166108fc479081150290604051600060405180830381858888f19350505050158015610f25573d6000803e3d6000fd5b5050565b610f4483838360405180602001604052806000815250611535565b505050565b60008060008054906101000a90046fffffffffffffffffffffffffffffffff166fffffffffffffffffffffffffffffffff1690506000805b82811015611082576000600360008381526020019081526020016000206040518060600160405290816000820160009054906101000a900473ffffffffffffffffffffffffffffffffffffffff1673ffffffffffffffffffffffffffffffffffffffff1673ffffffffffffffffffffffffffffffffffffffff1681526020016000820160149054906101000a900467ffffffffffffffff1667ffffffffffffffff1667ffffffffffffffff16815260200160008201601c9054906101000a900460ff16151515158152505090508060400151611074578583141561106b57819450505050506110b5565b82806001019350505b508080600101915050610f81565b506040517fa723001c00000000000000000000000000000000000000000000000000000000815260040160405180910390fd5b919050565b60006110c582611fe6565b600001519050919050565b60008073ffffffffffffffffffffffffffffffffffffffff168273ffffffffffffffffffffffffffffffffffffffff161415611138576040517f8f4eb60400000000000000000000000000000000000000000000000000000000815260040160405180910390fd5b600460008373ffffffffffffffffffffffffffffffffffffffff1673ffffffffffffffffffffffffffffffffffffffff16815260200190815260200160002060000160009054906101000a900467ffffffffffffffff1667ffffffffffffffff169050919050565b6111a86119f1565b73ffffffffffffffffffffffffffffffffffffffff166111c66112fb565b73ffffffffffffffffffffffffffffffffffffffff161461121c576040517f08c379a000000000000000000000000000000000000000000000000000000000815260040161121390613373565b60405180910390fd5b611226600061228e565b565b6112306119f1565b73ffffffffffffffffffffffffffffffffffffffff1661124e6112fb565b73ffffffffffffffffffffffffffffffffffffffff16146112a4576040517f08c379a000000000000000000000000000000000000000000000000000000000815260040161129b90613373565b60405180910390fd5b60006112ae6112fb565b90508073ffffffffffffffffffffffffffffffffffffffff166108fc839081150290604051600060405180830381858888f193505050501580156112f6573d6000803e3d6000fd5b505050565b6000600760009054906101000a900473ffffffffffffffffffffffffffffffffffffffff16905090565b61271081565b60606002805461133a906130d2565b80601f0160208091040260200160405190810160405280929190818152602001828054611366906130d2565b80156113b35780601f10611388576101008083540402835291602001916113b3565b820191906000526020600020905b81548152906001019060200180831161139657829003601f168201915b5050505050905090565b6113c56119f1565b73ffffffffffffffffffffffffffffffffffffffff168273ffffffffffffffffffffffffffffffffffffffff16141561142a576040517fb06307db00000000000000000000000000000000000000000000000000000000815260040160405180910390fd5b80600660006114376119f1565b73ffffffffffffffffffffffffffffffffffffffff1673ffffffffffffffffffffffffffffffffffffffff16815260200190815260200160002060008473ffffffffffffffffffffffffffffffffffffffff1673ffffffffffffffffffffffffffffffffffffffff16815260200190815260200160002060006101000a81548160ff0219169083151502179055508173ffffffffffffffffffffffffffffffffffffffff166114e46119f1565b73ffffffffffffffffffffffffffffffffffffffff167f17307eab39ab6107e8899845ad3d59bd9653f200f220920489ca2b5937696c31836040516115299190612b94565b60405180910390a35050565b611540848484611ac9565b61154c84848484612354565b611582576040517fd1a57ed600000000000000000000000000000000000000000000000000000000815260040160405180910390fd5b50505050565b662386f26fc1000081565b606061159e82611989565b6115d4576040517fa14c4b5000000000000000000000000000000000000000000000000000000000815260040160405180910390fd5b6115dc6124d3565b6115f2612710846115ed919061319f565b612565565b6040516020016116039291906133cf565b6040516020818303038152906040529050919050565b6103e881565b6008805461162c906130d2565b80601f0160208091040260200160405190810160405280929190818152602001828054611658906130d2565b80156116a55780601f1061167a576101008083540402835291602001916116a5565b820191906000526020600020905b81548152906001019060200180831161168857829003601f168201915b505050505081565b6000600660008473ffffffffffffffffffffffffffffffffffffffff1673ffffffffffffffffffffffffffffffffffffffff16815260200190815260200160002060008373ffffffffffffffffffffffffffffffffffffffff1673ffffffffffffffffffffffffffffffffffffffff16815260200190815260200160002060009054906101000a900460ff16905092915050565b6117496119f1565b73ffffffffffffffffffffffffffffffffffffffff166117676112fb565b73ffffffffffffffffffffffffffffffffffffffff16146117bd576040517f08c379a00000000000000000000000000000000000000000000000000000000081526004016117b490613373565b60405180910390fd5b60006117c7610b22565b905061271082826117d8919061319f565b1115611819576040517f08c379a000000000000000000000000000000000000000000000000000000000815260040161181090613241565b60405180910390fd5b6118233383611aab565b5050565b61182f6119f1565b73ffffffffffffffffffffffffffffffffffffffff1661184d6112fb565b73ffffffffffffffffffffffffffffffffffffffff16146118a3576040517f08c379a000000000000000000000000000000000000000000000000000000000815260040161189a90613373565b60405180910390fd5b600073ffffffffffffffffffffffffffffffffffffffff168173ffffffffffffffffffffffffffffffffffffffff161415611913576040517f08c379a000000000000000000000000000000000000000000000000000000000815260040161190a90613465565b60405180910390fd5b61191c8161228e565b50565b60007f01ffc9a7000000000000000000000000000000000000000000000000000000007bffffffffffffffffffffffffffffffffffffffffffffffffffffffff1916827bffffffffffffffffffffffffffffffffffffffffffffffffffffffff1916149050919050565b60008060009054906101000a90046fffffffffffffffffffffffffffffffff166fffffffffffffffffffffffffffffffff16821080156119ea575060036000838152602001908152602001600020600001601c9054906101000a900460ff16155b9050919050565b600033905090565b826005600084815260200190815260200160002060006101000a81548173ffffffffffffffffffffffffffffffffffffffff021916908373ffffffffffffffffffffffffffffffffffffffff160217905550818373ffffffffffffffffffffffffffffffffffffffff168273ffffffffffffffffffffffffffffffffffffffff167f8c5be1e5ebec7d5bd14f71427d1e84f3dd0314c0f7b2291e5b200ac8c7c3b92560405160405180910390a4505050565b611ac58282604051806020016040528060008152506126c6565b5050565b6000611ad482611fe6565b90506000816000015173ffffffffffffffffffffffffffffffffffffffff16611afb6119f1565b73ffffffffffffffffffffffffffffffffffffffff161480611b2e5750611b2d8260000151611b286119f1565b6116ad565b5b80611b735750611b3c6119f1565b73ffffffffffffffffffffffffffffffffffffffff16611b5b84610874565b73ffffffffffffffffffffffffffffffffffffffff16145b905080611bac576040517f59c896be00000000000000000000000000000000000000000000000000000000815260040160405180910390fd5b8473ffffffffffffffffffffffffffffffffffffffff16826000015173ffffffffffffffffffffffffffffffffffffffff1614611c15576040517fa114810000000000000000000000000000000000000000000000000000000000815260040160405180910390fd5b600073ffffffffffffffffffffffffffffffffffffffff168473ffffffffffffffffffffffffffffffffffffffff161415611c7c576040517fea553b3400000000000000000000000000000000000000000000000000000000815260040160405180910390fd5b611c8985858560016126d8565b611c9960008484600001516119f9565b6001600460008773ffffffffffffffffffffffffffffffffffffffff1673ffffffffffffffffffffffffffffffffffffffff16815260200190815260200160002060000160008282829054906101000a900467ffffffffffffffff160392506101000a81548167ffffffffffffffff021916908367ffffffffffffffff1602179055506001600460008673ffffffffffffffffffffffffffffffffffffffff1673ffffffffffffffffffffffffffffffffffffffff16815260200190815260200160002060000160008282829054906101000a900467ffffffffffffffff160192506101000a81548167ffffffffffffffff021916908367ffffffffffffffff160217905550836003600085815260200190815260200160002060000160006101000a81548173ffffffffffffffffffffffffffffffffffffffff021916908373ffffffffffffffffffffffffffffffffffffffff160217905550426003600085815260200190815260200160002060000160146101000a81548167ffffffffffffffff021916908367ffffffffffffffff1602179055506000600184019050600073ffffffffffffffffffffffffffffffffffffffff166003600083815260200190815260200160002060000160009054906101000a900473ffffffffffffffffffffffffffffffffffffffff1673ffffffffffffffffffffffffffffffffffffffff161415611f765760008054906101000a90046fffffffffffffffffffffffffffffffff166fffffffffffffffffffffffffffffffff16811015611f755782600001516003600083815260200190815260200160002060000160006101000a81548173ffffffffffffffffffffffffffffffffffffffff021916908373ffffffffffffffffffffffffffffffffffffffff16021790555082602001516003600083815260200190815260200160002060000160146101000a81548167ffffffffffffffff021916908367ffffffffffffffff1602179055505b5b50828473ffffffffffffffffffffffffffffffffffffffff168673ffffffffffffffffffffffffffffffffffffffff167fddf252ad1be2c89b69c2b068fc378daa952ba7f163c4a11628f55a4df523b3ef60405160405180910390a4611fdf85858560016126de565b5050505050565b611fee612a9d565b600082905060008054906101000a90046fffffffffffffffffffffffffffffffff166fffffffffffffffffffffffffffffffff16811015612257576000600360008381526020019081526020016000206040518060600160405290816000820160009054906101000a900473ffffffffffffffffffffffffffffffffffffffff1673ffffffffffffffffffffffffffffffffffffffff1673ffffffffffffffffffffffffffffffffffffffff1681526020016000820160149054906101000a900467ffffffffffffffff1667ffffffffffffffff1667ffffffffffffffff16815260200160008201601c9054906101000a900460ff1615151515815250509050806040015161225557600073ffffffffffffffffffffffffffffffffffffffff16816000015173ffffffffffffffffffffffffffffffffffffffff1614612139578092505050612289565b5b60011561225457818060019003925050600360008381526020019081526020016000206040518060600160405290816000820160009054906101000a900473ffffffffffffffffffffffffffffffffffffffff1673ffffffffffffffffffffffffffffffffffffffff1673ffffffffffffffffffffffffffffffffffffffff1681526020016000820160149054906101000a900467ffffffffffffffff1667ffffffffffffffff1667ffffffffffffffff16815260200160008201601c9054906101000a900460ff1615151515815250509050600073ffffffffffffffffffffffffffffffffffffffff16816000015173ffffffffffffffffffffffffffffffffffffffff161461224f578092505050612289565b61213a565b5b505b6040517fdf2d9b4200000000000000000000000000000000000000000000000000000000815260040160405180910390fd5b919050565b6000600760009054906101000a900473ffffffffffffffffffffffffffffffffffffffff16905081600760006101000a81548173ffffffffffffffffffffffffffffffffffffffff021916908373ffffffffffffffffffffffffffffffffffffffff1602179055508173ffffffffffffffffffffffffffffffffffffffff168173ffffffffffffffffffffffffffffffffffffffff167f8be0079c531659141344cd1fd0a4f28419497f9722a3daafe3b4186f6b6457e060405160405180910390a35050565b60006123758473ffffffffffffffffffffffffffffffffffffffff166126e4565b156124c6578373ffffffffffffffffffffffffffffffffffffffff1663150b7a0261239e6119f1565b8786866040518563ffffffff1660e01b81526004016123c094939291906134da565b6020604051808303816000875af19250505080156123fc57506040513d601f19601f820116820180604052508101906123f9919061353b565b60015b612476573d806000811461242c576040519150601f19603f3d011682016040523d82523d6000602084013e612431565b606091505b5060008151141561246e576040517fd1a57ed600000000000000000000000000000000000000000000000000000000815260040160405180910390fd5b805181602001fd5b63150b7a0260e01b7bffffffffffffffffffffffffffffffffffffffffffffffffffffffff1916817bffffffffffffffffffffffffffffffffffffffffffffffffffffffff1916149150506124cb565b600190505b949350505050565b6060600880546124e2906130d2565b80601f016020809104026020016040519081016040528092919081815260200182805461250e906130d2565b801561255b5780601f106125305761010080835404028352916020019161255b565b820191906000526020600020905b81548152906001019060200180831161253e57829003601f168201915b5050505050905090565b606060008214156125ad576040518060400160405280600181526020017f300000000000000000000000000000000000000000000000000000000000000081525090506126c1565b600082905060005b600082146125df5780806125c890613568565b915050600a826125d891906135e0565b91506125b5565b60008167ffffffffffffffff8111156125fb576125fa612eb5565b5b6040519080825280601f01601f19166020018201604052801561262d5781602001600182028036833780820191505090505b5090505b600085146126ba576001826126469190613611565b9150600a856126559190613645565b6030612661919061319f565b60f81b81838151811061267757612676613676565b5b60200101907effffffffffffffffffffffffffffffffffffffffffffffffffffffffffffff1916908160001a905350600a856126b391906135e0565b9450612631565b8093505050505b919050565b6126d38383836001612707565b505050565b50505050565b50505050565b6000808273ffffffffffffffffffffffffffffffffffffffff163b119050919050565b60008060009054906101000a90046fffffffffffffffffffffffffffffffff166fffffffffffffffffffffffffffffffff169050600073ffffffffffffffffffffffffffffffffffffffff168573ffffffffffffffffffffffffffffffffffffffff1614156127a2576040517f2e07630000000000000000000000000000000000000000000000000000000000815260040160405180910390fd5b60008414156127dd576040517fb562e8dd00000000000000000000000000000000000000000000000000000000815260040160405180910390fd5b6127ea60008683876126d8565b83600460008773ffffffffffffffffffffffffffffffffffffffff1673ffffffffffffffffffffffffffffffffffffffff16815260200190815260200160002060000160008282829054906101000a900467ffffffffffffffff160192506101000a81548167ffffffffffffffff021916908367ffffffffffffffff16021790555083600460008773ffffffffffffffffffffffffffffffffffffffff1673ffffffffffffffffffffffffffffffffffffffff16815260200190815260200160002060000160088282829054906101000a900467ffffffffffffffff160192506101000a81548167ffffffffffffffff021916908367ffffffffffffffff160217905550846003600083815260200190815260200160002060000160006101000a81548173ffffffffffffffffffffffffffffffffffffffff021916908373ffffffffffffffffffffffffffffffffffffffff160217905550426003600083815260200190815260200160002060000160146101000a81548167ffffffffffffffff021916908367ffffffffffffffff160217905550600081905060005b85811015612a4f57818773ffffffffffffffffffffffffffffffffffffffff16600073ffffffffffffffffffffffffffffffffffffffff167fddf252ad1be2c89b69c2b068fc378daa952ba7f163c4a11628f55a4df523b3ef60405160405180910390a4838015612a035750612a016000888488612354565b155b15612a3a576040517fd1a57ed600000000000000000000000000000000000000000000000000000000815260040160405180910390fd5b81806001019250508080600101915050612988565b50806000806101000a8154816fffffffffffffffffffffffffffffffff02191690836fffffffffffffffffffffffffffffffff16021790555050612a9660008683876126de565b5050505050565b6040518060600160405280600073ffffffffffffffffffffffffffffffffffffffff168152602001600067ffffffffffffffff1681526020016000151581525090565b6000604051905090565b600080fd5b600080fd5b60007fffffffff0000000000000000000000000000000000000000000000000000000082169050919050565b612b2981612af4565b8114612b3457600080fd5b50565b600081359050612b4681612b20565b92915050565b600060208284031215612b6257612b61612aea565b5b6000612b7084828501612b37565b91505092915050565b60008115159050919050565b612b8e81612b79565b82525050565b6000602082019050612ba96000830184612b85565b92915050565b600081519050919050565b600082825260208201905092915050565b60005b83811015612be9578082015181840152602081019050612bce565b83811115612bf8576000848401525b50505050565b6000601f19601f8301169050919050565b6000612c1a82612baf565b612c248185612bba565b9350612c34818560208601612bcb565b612c3d81612bfe565b840191505092915050565b60006020820190508181036000830152612c628184612c0f565b905092915050565b6000819050919050565b612c7d81612c6a565b8114612c8857600080fd5b50565b600081359050612c9a81612c74565b92915050565b600060208284031215612cb657612cb5612aea565b5b6000612cc484828501612c8b565b91505092915050565b600073ffffffffffffffffffffffffffffffffffffffff82169050919050565b6000612cf882612ccd565b9050919050565b612d0881612ced565b82525050565b6000602082019050612d236000830184612cff565b92915050565b612d3281612ced565b8114612d3d57600080fd5b50565b600081359050612d4f81612d29565b92915050565b60008060408385031215612d6c57612d6b612aea565b5b6000612d7a85828601612d40565b9250506020612d8b85828601612c8b565b9150509250929050565b612d9e81612c6a565b82525050565b6000602082019050612db96000830184612d95565b92915050565b600080600060608486031215612dd857612dd7612aea565b5b6000612de686828701612d40565b9350506020612df786828701612d40565b9250506040612e0886828701612c8b565b9150509250925092565b600060208284031215612e2857612e27612aea565b5b6000612e3684828501612d40565b91505092915050565b612e4881612b79565b8114612e5357600080fd5b50565b600081359050612e6581612e3f565b92915050565b60008060408385031215612e8257612e81612aea565b5b6000612e9085828601612d40565b9250506020612ea185828601612e56565b9150509250929050565b600080fd5b600080fd5b7f4e487b7100000000000000000000000000000000000000000000000000000000600052604160045260246000fd5b612eed82612bfe565b810181811067ffffffffffffffff82111715612f0c57612f0b612eb5565b5b80604052505050565b6000612f1f612ae0565b9050612f2b8282612ee4565b919050565b600067ffffffffffffffff821115612f4b57612f4a612eb5565b5b612f5482612bfe565b9050602081019050919050565b82818337600083830152505050565b6000612f83612f7e84612f30565b612f15565b905082815260208101848484011115612f9f57612f9e612eb0565b5b612faa848285612f61565b509392505050565b600082601f830112612fc757612fc6612eab565b5b8135612fd7848260208601612f70565b91505092915050565b60008060008060808587031215612ffa57612ff9612aea565b5b600061300887828801612d40565b945050602061301987828801612d40565b935050604061302a87828801612c8b565b925050606085013567ffffffffffffffff81111561304b5761304a612aef565b5b61305787828801612fb2565b91505092959194509250565b6000806040838503121561307a57613079612aea565b5b600061308885828601612d40565b925050602061309985828601612d40565b9150509250929050565b7f4e487b7100000000000000000000000000000000000000000000000000000000600052602260045260246000fd5b600060028204905060018216806130ea57607f821691505b602082108114156130fe576130fd6130a3565b5b50919050565b7f496e76616c6964207175616e746974792e000000000000000000000000000000600082015250565b600061313a601183612bba565b915061314582613104565b602082019050919050565b600060208201905081810360008301526131698161312d565b9050919050565b7f4e487b7100000000000000000000000000000000000000000000000000000000600052601160045260246000fd5b60006131aa82612c6a565b91506131b583612c6a565b9250827fffffffffffffffffffffffffffffffffffffffffffffffffffffffffffffffff038211156131ea576131e9613170565b5b828201905092915050565b7f45786365656473206d6178696d756d20737570706c7900000000000000000000600082015250565b600061322b601683612bba565b9150613236826131f5565b602082019050919050565b6000602082019050818103600083015261325a8161321e565b9050919050565b600061326c82612c6a565b915061327783612c6a565b9250817fffffffffffffffffffffffffffffffffffffffffffffffffffffffffffffffff04831182151516156132b0576132af613170565b5b828202905092915050565b7f4e6f7420656e6f7567687420737570706c792e00000000000000000000000000600082015250565b60006132f1601383612bba565b91506132fc826132bb565b602082019050919050565b60006020820190508181036000830152613320816132e4565b9050919050565b7f4f776e61626c653a2063616c6c6572206973206e6f7420746865206f776e6572600082015250565b600061335d602083612bba565b915061336882613327565b602082019050919050565b6000602082019050818103600083015261338c81613350565b9050919050565b600081905092915050565b60006133a982612baf565b6133b38185613393565b93506133c3818560208601612bcb565b80840191505092915050565b60006133db828561339e565b91506133e7828461339e565b91508190509392505050565b7f4f776e61626c653a206e6577206f776e657220697320746865207a65726f206160008201527f6464726573730000000000000000000000000000000000000000000000000000602082015250565b600061344f602683612bba565b915061345a826133f3565b604082019050919050565b6000602082019050818103600083015261347e81613442565b9050919050565b600081519050919050565b600082825260208201905092915050565b60006134ac82613485565b6134b68185613490565b93506134c6818560208601612bcb565b6134cf81612bfe565b840191505092915050565b60006080820190506134ef6000830187612cff565b6134fc6020830186612cff565b6135096040830185612d95565b818103606083015261351b81846134a1565b905095945050505050565b60008151905061353581612b20565b92915050565b60006020828403121561355157613550612aea565b5b600061355f84828501613526565b91505092915050565b600061357382612c6a565b91507fffffffffffffffffffffffffffffffffffffffffffffffffffffffffffffffff8214156135a6576135a5613170565b5b600182019050919050565b7f4e487b7100000000000000000000000000000000000000000000000000000000600052601260045260246000fd5b60006135eb82612c6a565b91506135f683612c6a565b925082613606576136056135b1565b5b828204905092915050565b600061361c82612c6a565b915061362783612c6a565b92508282101561363a57613639613170565b5b828203905092915050565b600061365082612c6a565b915061365b83612c6a565b92508261366b5761366a6135b1565b5b828206905092915050565b7f4e487b7100000000000000000000000000000000000000000000000000000000600052603260045260246000fdfea26469706673582212206058ffbeae6e9d8f15834e07bf64ed2d2def755013cc0f22b99cecd592b9a5e364736f6c634300080c003368747470733a2f2f6170692e6d696e743078446f6f646c65732e78797a2f6d657461646174612f",
  "linkReferences": {},
  "deployedLinkReferences": {}
}